{
  "address": "0x3F69AB61FE7df4ce805Fe21D9d7bD8C0bD2BeBE3",
  "abi": [
    {
      "inputs": [
        {
          "internalType": "address",
          "name": "_token",
          "type": "address"
        },
        {
          "internalType": "uint256",
          "name": "_amount",
          "type": "uint256"
        }
      ],
      "name": "mint",
      "outputs": [
        {
          "internalType": "uint256",
          "name": "",
          "type": "uint256"
        }
      ],
      "stateMutability": "nonpayable",
      "type": "function"
    }
  ],
  "transactionHash": "0x1212db07f2bc58ac713431b0999f4f8a4b7f273a8b210d4a4d778a7eb0db1892",
  "args": [],
  "numDeployments": 1,
  "solcInputHash": "816200c80748247f1e8b4ace73f060ab",
  "bytecode": "0x608060405234801561001057600080fd5b5061019b806100206000396000f3fe608060405234801561001057600080fd5b506004361061002b5760003560e01c806340c10f1914610030575b600080fd5b61004361003e3660046100f7565b610055565b60405190815260200160405180910390f35b6040517f40c10f190000000000000000000000000000000000000000000000000000000081523360048201526024810182905260009073ffffffffffffffffffffffffffffffffffffffff8416906340c10f19906044016020604051808303816000875af11580156100cb573d6000803e3d6000fd5b505050506040513d601f19601f820116820180604052508101906100ef919061013c565b509092915050565b6000806040838503121561010a57600080fd5b823573ffffffffffffffffffffffffffffffffffffffff8116811461012e57600080fd5b946020939093013593505050565b60006020828403121561014e57600080fd5b8151801515811461015e57600080fd5b939250505056fea2646970667358221220bf4f8640e07dd768750065f54fa317753c89d44a65bed50c8646711984bb26f364736f6c634300080a0033",
  "devdoc": {
    "kind": "dev",
    "methods": {
      "mint(address,uint256)": {
        "details": "Proxy function to mint Testnet tokens to msg.sender",
        "params": {
          "_amount": "The amount to mint",
          "_token": "The address of the token"
        },
        "returns": {
          "_0": "The amount minted*"
        }
      }
    },
    "version": 1
  },
  "userdoc": {
    "kind": "user",
    "methods": {},
    "version": 1
  },
  "storageLayout": {
    "storage": [],
    "types": null
  }
}