{
  "address": "0xFBbaFc57BCA5038ae7F91Bd8F42b5064390E2217",
  "abi": [
    {
      "anonymous": false,
      "inputs": [
        {
          "indexed": false,
          "internalType": "address",
          "name": "asset",
          "type": "address"
        },
        {
          "indexed": false,
          "internalType": "uint256",
          "name": "price",
          "type": "uint256"
        },
        {
          "indexed": false,
          "internalType": "uint256",
          "name": "timestamp",
          "type": "uint256"
        }
      ],
      "name": "AssetPriceUpdated",
      "type": "event"
    },
    {
      "anonymous": false,
      "inputs": [
        {
          "indexed": false,
          "internalType": "uint256",
          "name": "price",
          "type": "uint256"
        },
        {
          "indexed": false,
          "internalType": "uint256",
          "name": "timestamp",
          "type": "uint256"
        }
      ],
      "name": "EthPriceUpdated",
      "type": "event"
    },
    {
      "inputs": [
        {
          "internalType": "address",
          "name": "asset",
          "type": "address"
        }
      ],
      "name": "getAssetPrice",
      "outputs": [
        {
          "internalType": "uint256",
          "name": "",
          "type": "uint256"
        }
      ],
      "stateMutability": "view",
      "type": "function"
    },
    {
      "inputs": [],
      "name": "getEthUsdPrice",
      "outputs": [
        {
          "internalType": "uint256",
          "name": "",
          "type": "uint256"
        }
      ],
      "stateMutability": "view",
      "type": "function"
    },
    {
      "inputs": [
        {
          "internalType": "address",
          "name": "asset",
          "type": "address"
        },
        {
          "internalType": "uint256",
          "name": "price",
          "type": "uint256"
        }
      ],
      "name": "setAssetPrice",
      "outputs": [],
      "stateMutability": "nonpayable",
      "type": "function"
    },
    {
      "inputs": [
        {
          "internalType": "uint256",
          "name": "price",
          "type": "uint256"
        }
      ],
      "name": "setEthUsdPrice",
      "outputs": [],
      "stateMutability": "nonpayable",
      "type": "function"
    }
  ],
  "transactionHash": "0x4e4ceb9a6ddd90418bb9b0a4eb3a3639458bb39d26a7d04fe4dc795837d8e9d3",
  "args": [],
  "numDeployments": 1,
  "solcInputHash": "816200c80748247f1e8b4ace73f060ab",
  "bytecode": "0x608060405234801561001057600080fd5b50610231806100206000396000f3fe608060405234801561001057600080fd5b506004361061004c5760003560e01c806351323f7214610051578063a0a8045e14610066578063b3596f071461007c578063b951883a146100b2575b600080fd5b61006461005f366004610196565b6100c5565b005b6001545b60405190815260200160405180910390f35b61006a61008a3660046101c0565b73ffffffffffffffffffffffffffffffffffffffff1660009081526020819052604090205490565b6100646100c03660046101e2565b61012d565b73ffffffffffffffffffffffffffffffffffffffff821660008181526020818152604091829020849055815192835282018390524282820152517fce6e0b57367bae95ca7198e1172f653ea64a645c16ab586b4cefa9237bfc2d929181900360600190a15050565b6001819055604080518281524260208201527fb4f35977939fa8b5ffe552d517a8ff5223046b1fdd3ee0068ae38d1e2b8d0016910160405180910390a150565b803573ffffffffffffffffffffffffffffffffffffffff8116811461019157600080fd5b919050565b600080604083850312156101a957600080fd5b6101b28361016d565b946020939093013593505050565b6000602082840312156101d257600080fd5b6101db8261016d565b9392505050565b6000602082840312156101f457600080fd5b503591905056fea2646970667358221220c4bf1359025a77d11a3cec0a8130896614100a48e4396816e97b0d5c0e6aa4a464736f6c634300080a0033",
  "devdoc": {
    "kind": "dev",
    "methods": {
      "getAssetPrice(address)": {
        "params": {
          "asset": "The address of the asset"
        },
        "returns": {
          "_0": "The price of the asset*"
        }
      },
      "setAssetPrice(address,uint256)": {
        "params": {
          "asset": "The address of the asset",
          "price": "The price of the asset*"
        }
      }
    },
    "version": 1
  },
  "userdoc": {
    "kind": "user",
    "methods": {
      "getAssetPrice(address)": {
        "notice": "Returns the asset price in the base currency"
      },
      "setAssetPrice(address,uint256)": {
        "notice": "Set the price of the asset"
      }
    },
    "version": 1
  },
  "storageLayout": {
    "storage": [
      {
        "astId": 8606,
        "contract": "@aave/core-v3/contracts/mocks/oracle/PriceOracle.sol:PriceOracle",
        "label": "prices",
        "offset": 0,
        "slot": "0",
        "type": "t_mapping(t_address,t_uint256)"
      },
      {
        "astId": 8608,
        "contract": "@aave/core-v3/contracts/mocks/oracle/PriceOracle.sol:PriceOracle",
        "label": "ethPriceUsd",
        "offset": 0,
        "slot": "1",
        "type": "t_uint256"
      }
    ],
    "types": {
      "t_address": {
        "encoding": "inplace",
        "label": "address",
        "numberOfBytes": "20"
      },
      "t_mapping(t_address,t_uint256)": {
        "encoding": "mapping",
        "key": "t_address",
        "label": "mapping(address => uint256)",
        "numberOfBytes": "32",
        "value": "t_uint256"
      },
      "t_uint256": {
        "encoding": "inplace",
        "label": "uint256",
        "numberOfBytes": "32"
      }
    }
  }
}