{
  "address": "0xb8c39ABCF55Aac88374814FF5bC072A6aDAD75D9",
  "abi": [
    {
      "inputs": [
        {
          "internalType": "address",
          "name": "emissionManager",
          "type": "address"
        }
      ],
      "stateMutability": "nonpayable",
      "type": "constructor"
    },
    {
      "anonymous": false,
      "inputs": [
        {
          "indexed": true,
          "internalType": "address",
          "name": "asset",
          "type": "address"
        },
        {
          "indexed": true,
          "internalType": "address",
          "name": "reward",
          "type": "address"
        },
        {
          "indexed": true,
          "internalType": "address",
          "name": "user",
          "type": "address"
        },
        {
          "indexed": false,
          "internalType": "uint256",
          "name": "assetIndex",
          "type": "uint256"
        },
        {
          "indexed": false,
          "internalType": "uint256",
          "name": "userIndex",
          "type": "uint256"
        },
        {
          "indexed": false,
          "internalType": "uint256",
          "name": "rewardsAccrued",
          "type": "uint256"
        }
      ],
      "name": "Accrued",
      "type": "event"
    },
    {
      "anonymous": false,
      "inputs": [
        {
          "indexed": true,
          "internalType": "address",
          "name": "asset",
          "type": "address"
        },
        {
          "indexed": true,
          "internalType": "address",
          "name": "reward",
          "type": "address"
        },
        {
          "indexed": false,
          "internalType": "uint256",
          "name": "oldEmission",
          "type": "uint256"
        },
        {
          "indexed": false,
          "internalType": "uint256",
          "name": "newEmission",
          "type": "uint256"
        },
        {
          "indexed": false,
          "internalType": "uint256",
          "name": "oldDistributionEnd",
          "type": "uint256"
        },
        {
          "indexed": false,
          "internalType": "uint256",
          "name": "newDistributionEnd",
          "type": "uint256"
        },
        {
          "indexed": false,
          "internalType": "uint256",
          "name": "assetIndex",
          "type": "uint256"
        }
      ],
      "name": "AssetConfigUpdated",
      "type": "event"
    },
    {
      "anonymous": false,
      "inputs": [
        {
          "indexed": true,
          "internalType": "address",
          "name": "user",
          "type": "address"
        },
        {
          "indexed": true,
          "internalType": "address",
          "name": "claimer",
          "type": "address"
        }
      ],
      "name": "ClaimerSet",
      "type": "event"
    },
    {
      "anonymous": false,
      "inputs": [
        {
          "indexed": true,
          "internalType": "address",
          "name": "reward",
          "type": "address"
        },
        {
          "indexed": true,
          "internalType": "address",
          "name": "rewardOracle",
          "type": "address"
        }
      ],
      "name": "RewardOracleUpdated",
      "type": "event"
    },
    {
      "anonymous": false,
      "inputs": [
        {
          "indexed": true,
          "internalType": "address",
          "name": "user",
          "type": "address"
        },
        {
          "indexed": true,
          "internalType": "address",
          "name": "reward",
          "type": "address"
        },
        {
          "indexed": true,
          "internalType": "address",
          "name": "to",
          "type": "address"
        },
        {
          "indexed": false,
          "internalType": "address",
          "name": "claimer",
          "type": "address"
        },
        {
          "indexed": false,
          "internalType": "uint256",
          "name": "amount",
          "type": "uint256"
        }
      ],
      "name": "RewardsClaimed",
      "type": "event"
    },
    {
      "anonymous": false,
      "inputs": [
        {
          "indexed": true,
          "internalType": "address",
          "name": "reward",
          "type": "address"
        },
        {
          "indexed": true,
          "internalType": "address",
          "name": "transferStrategy",
          "type": "address"
        }
      ],
      "name": "TransferStrategyInstalled",
      "type": "event"
    },
    {
      "inputs": [],
      "name": "EMISSION_MANAGER",
      "outputs": [
        {
          "internalType": "address",
          "name": "",
          "type": "address"
        }
      ],
      "stateMutability": "view",
      "type": "function"
    },
    {
      "inputs": [],
      "name": "REVISION",
      "outputs": [
        {
          "internalType": "uint256",
          "name": "",
          "type": "uint256"
        }
      ],
      "stateMutability": "view",
      "type": "function"
    },
    {
      "inputs": [
        {
          "internalType": "address[]",
          "name": "assets",
          "type": "address[]"
        },
        {
          "internalType": "address",
          "name": "to",
          "type": "address"
        }
      ],
      "name": "claimAllRewards",
      "outputs": [
        {
          "internalType": "address[]",
          "name": "rewardsList",
          "type": "address[]"
        },
        {
          "internalType": "uint256[]",
          "name": "claimedAmounts",
          "type": "uint256[]"
        }
      ],
      "stateMutability": "nonpayable",
      "type": "function"
    },
    {
      "inputs": [
        {
          "internalType": "address[]",
          "name": "assets",
          "type": "address[]"
        },
        {
          "internalType": "address",
          "name": "user",
          "type": "address"
        },
        {
          "internalType": "address",
          "name": "to",
          "type": "address"
        }
      ],
      "name": "claimAllRewardsOnBehalf",
      "outputs": [
        {
          "internalType": "address[]",
          "name": "rewardsList",
          "type": "address[]"
        },
        {
          "internalType": "uint256[]",
          "name": "claimedAmounts",
          "type": "uint256[]"
        }
      ],
      "stateMutability": "nonpayable",
      "type": "function"
    },
    {
      "inputs": [
        {
          "internalType": "address[]",
          "name": "assets",
          "type": "address[]"
        }
      ],
      "name": "claimAllRewardsToSelf",
      "outputs": [
        {
          "internalType": "address[]",
          "name": "rewardsList",
          "type": "address[]"
        },
        {
          "internalType": "uint256[]",
          "name": "claimedAmounts",
          "type": "uint256[]"
        }
      ],
      "stateMutability": "nonpayable",
      "type": "function"
    },
    {
      "inputs": [
        {
          "internalType": "address[]",
          "name": "assets",
          "type": "address[]"
        },
        {
          "internalType": "uint256",
          "name": "amount",
          "type": "uint256"
        },
        {
          "internalType": "address",
          "name": "to",
          "type": "address"
        },
        {
          "internalType": "address",
          "name": "reward",
          "type": "address"
        }
      ],
      "name": "claimRewards",
      "outputs": [
        {
          "internalType": "uint256",
          "name": "",
          "type": "uint256"
        }
      ],
      "stateMutability": "nonpayable",
      "type": "function"
    },
    {
      "inputs": [
        {
          "internalType": "address[]",
          "name": "assets",
          "type": "address[]"
        },
        {
          "internalType": "uint256",
          "name": "amount",
          "type": "uint256"
        },
        {
          "internalType": "address",
          "name": "user",
          "type": "address"
        },
        {
          "internalType": "address",
          "name": "to",
          "type": "address"
        },
        {
          "internalType": "address",
          "name": "reward",
          "type": "address"
        }
      ],
      "name": "claimRewardsOnBehalf",
      "outputs": [
        {
          "internalType": "uint256",
          "name": "",
          "type": "uint256"
        }
      ],
      "stateMutability": "nonpayable",
      "type": "function"
    },
    {
      "inputs": [
        {
          "internalType": "address[]",
          "name": "assets",
          "type": "address[]"
        },
        {
          "internalType": "uint256",
          "name": "amount",
          "type": "uint256"
        },
        {
          "internalType": "address",
          "name": "reward",
          "type": "address"
        }
      ],
      "name": "claimRewardsToSelf",
      "outputs": [
        {
          "internalType": "uint256",
          "name": "",
          "type": "uint256"
        }
      ],
      "stateMutability": "nonpayable",
      "type": "function"
    },
    {
      "inputs": [
        {
          "components": [
            {
              "internalType": "uint88",
              "name": "emissionPerSecond",
              "type": "uint88"
            },
            {
              "internalType": "uint256",
              "name": "totalSupply",
              "type": "uint256"
            },
            {
              "internalType": "uint32",
              "name": "distributionEnd",
              "type": "uint32"
            },
            {
              "internalType": "address",
              "name": "asset",
              "type": "address"
            },
            {
              "internalType": "address",
              "name": "reward",
              "type": "address"
            },
            {
              "internalType": "contract ITransferStrategyBase",
              "name": "transferStrategy",
              "type": "address"
            },
            {
              "internalType": "contract IEACAggregatorProxy",
              "name": "rewardOracle",
              "type": "address"
            }
          ],
          "internalType": "struct RewardsDataTypes.RewardsConfigInput[]",
          "name": "config",
          "type": "tuple[]"
        }
      ],
      "name": "configureAssets",
      "outputs": [],
      "stateMutability": "nonpayable",
      "type": "function"
    },
    {
      "inputs": [
        {
          "internalType": "address[]",
          "name": "assets",
          "type": "address[]"
        },
        {
          "internalType": "address",
          "name": "user",
          "type": "address"
        }
      ],
      "name": "getAllUserRewards",
      "outputs": [
        {
          "internalType": "address[]",
          "name": "rewardsList",
          "type": "address[]"
        },
        {
          "internalType": "uint256[]",
          "name": "unclaimedAmounts",
          "type": "uint256[]"
        }
      ],
      "stateMutability": "view",
      "type": "function"
    },
    {
      "inputs": [
        {
          "internalType": "address",
          "name": "asset",
          "type": "address"
        }
      ],
      "name": "getAssetDecimals",
      "outputs": [
        {
          "internalType": "uint8",
          "name": "",
          "type": "uint8"
        }
      ],
      "stateMutability": "view",
      "type": "function"
    },
    {
      "inputs": [
        {
          "internalType": "address",
          "name": "asset",
          "type": "address"
        },
        {
          "internalType": "address",
          "name": "reward",
          "type": "address"
        }
      ],
      "name": "getAssetIndex",
      "outputs": [
        {
          "internalType": "uint256",
          "name": "",
          "type": "uint256"
        },
        {
          "internalType": "uint256",
          "name": "",
          "type": "uint256"
        }
      ],
      "stateMutability": "view",
      "type": "function"
    },
    {
      "inputs": [
        {
          "internalType": "address",
          "name": "user",
          "type": "address"
        }
      ],
      "name": "getClaimer",
      "outputs": [
        {
          "internalType": "address",
          "name": "",
          "type": "address"
        }
      ],
      "stateMutability": "view",
      "type": "function"
    },
    {
      "inputs": [
        {
          "internalType": "address",
          "name": "asset",
          "type": "address"
        },
        {
          "internalType": "address",
          "name": "reward",
          "type": "address"
        }
      ],
      "name": "getDistributionEnd",
      "outputs": [
        {
          "internalType": "uint256",
          "name": "",
          "type": "uint256"
        }
      ],
      "stateMutability": "view",
      "type": "function"
    },
    {
      "inputs": [
        {
          "internalType": "address",
          "name": "reward",
          "type": "address"
        }
      ],
      "name": "getRewardOracle",
      "outputs": [
        {
          "internalType": "address",
          "name": "",
          "type": "address"
        }
      ],
      "stateMutability": "view",
      "type": "function"
    },
    {
      "inputs": [
        {
          "internalType": "address",
          "name": "asset",
          "type": "address"
        }
      ],
      "name": "getRewardsByAsset",
      "outputs": [
        {
          "internalType": "address[]",
          "name": "",
          "type": "address[]"
        }
      ],
      "stateMutability": "view",
      "type": "function"
    },
    {
      "inputs": [
        {
          "internalType": "address",
          "name": "asset",
          "type": "address"
        },
        {
          "internalType": "address",
          "name": "reward",
          "type": "address"
        }
      ],
      "name": "getRewardsData",
      "outputs": [
        {
          "internalType": "uint256",
          "name": "",
          "type": "uint256"
        },
        {
          "internalType": "uint256",
          "name": "",
          "type": "uint256"
        },
        {
          "internalType": "uint256",
          "name": "",
          "type": "uint256"
        },
        {
          "internalType": "uint256",
          "name": "",
          "type": "uint256"
        }
      ],
      "stateMutability": "view",
      "type": "function"
    },
    {
      "inputs": [],
      "name": "getRewardsList",
      "outputs": [
        {
          "internalType": "address[]",
          "name": "",
          "type": "address[]"
        }
      ],
      "stateMutability": "view",
      "type": "function"
    },
    {
      "inputs": [
        {
          "internalType": "address",
          "name": "reward",
          "type": "address"
        }
      ],
      "name": "getTransferStrategy",
      "outputs": [
        {
          "internalType": "address",
          "name": "",
          "type": "address"
        }
      ],
      "stateMutability": "view",
      "type": "function"
    },
    {
      "inputs": [
        {
          "internalType": "address",
          "name": "user",
          "type": "address"
        },
        {
          "internalType": "address",
          "name": "reward",
          "type": "address"
        }
      ],
      "name": "getUserAccruedRewards",
      "outputs": [
        {
          "internalType": "uint256",
          "name": "",
          "type": "uint256"
        }
      ],
      "stateMutability": "view",
      "type": "function"
    },
    {
      "inputs": [
        {
          "internalType": "address",
          "name": "user",
          "type": "address"
        },
        {
          "internalType": "address",
          "name": "asset",
          "type": "address"
        },
        {
          "internalType": "address",
          "name": "reward",
          "type": "address"
        }
      ],
      "name": "getUserAssetIndex",
      "outputs": [
        {
          "internalType": "uint256",
          "name": "",
          "type": "uint256"
        }
      ],
      "stateMutability": "view",
      "type": "function"
    },
    {
      "inputs": [
        {
          "internalType": "address[]",
          "name": "assets",
          "type": "address[]"
        },
        {
          "internalType": "address",
          "name": "user",
          "type": "address"
        },
        {
          "internalType": "address",
          "name": "reward",
          "type": "address"
        }
      ],
      "name": "getUserRewards",
      "outputs": [
        {
          "internalType": "uint256",
          "name": "",
          "type": "uint256"
        }
      ],
      "stateMutability": "view",
      "type": "function"
    },
    {
      "inputs": [
        {
          "internalType": "address",
          "name": "user",
          "type": "address"
        },
        {
          "internalType": "uint256",
          "name": "totalSupply",
          "type": "uint256"
        },
        {
          "internalType": "uint256",
          "name": "userBalance",
          "type": "uint256"
        }
      ],
      "name": "handleAction",
      "outputs": [],
      "stateMutability": "nonpayable",
      "type": "function"
    },
    {
      "inputs": [
        {
          "internalType": "address",
          "name": "",
          "type": "address"
        }
      ],
      "name": "initialize",
      "outputs": [],
      "stateMutability": "nonpayable",
      "type": "function"
    },
    {
      "inputs": [
        {
          "internalType": "address",
          "name": "user",
          "type": "address"
        },
        {
          "internalType": "address",
          "name": "caller",
          "type": "address"
        }
      ],
      "name": "setClaimer",
      "outputs": [],
      "stateMutability": "nonpayable",
      "type": "function"
    },
    {
      "inputs": [
        {
          "internalType": "address",
          "name": "asset",
          "type": "address"
        },
        {
          "internalType": "address",
          "name": "reward",
          "type": "address"
        },
        {
          "internalType": "uint32",
          "name": "newDistributionEnd",
          "type": "uint32"
        }
      ],
      "name": "setDistributionEnd",
      "outputs": [],
      "stateMutability": "nonpayable",
      "type": "function"
    },
    {
      "inputs": [
        {
          "internalType": "address",
          "name": "asset",
          "type": "address"
        },
        {
          "internalType": "address[]",
          "name": "rewards",
          "type": "address[]"
        },
        {
          "internalType": "uint88[]",
          "name": "newEmissionsPerSecond",
          "type": "uint88[]"
        }
      ],
      "name": "setEmissionPerSecond",
      "outputs": [],
      "stateMutability": "nonpayable",
      "type": "function"
    },
    {
      "inputs": [
        {
          "internalType": "address",
          "name": "reward",
          "type": "address"
        },
        {
          "internalType": "contract IEACAggregatorProxy",
          "name": "rewardOracle",
          "type": "address"
        }
      ],
      "name": "setRewardOracle",
      "outputs": [],
      "stateMutability": "nonpayable",
      "type": "function"
    },
    {
      "inputs": [
        {
          "internalType": "address",
          "name": "reward",
          "type": "address"
        },
        {
          "internalType": "contract ITransferStrategyBase",
          "name": "transferStrategy",
          "type": "address"
        }
      ],
      "name": "setTransferStrategy",
      "outputs": [],
      "stateMutability": "nonpayable",
      "type": "function"
    }
  ],
  "transactionHash": "0x5ac605277230853a68de6ce72d0e77867aefe7c6edc588ccc4bfd80290e7c031",
  "args": [
    "0x6B0Fe05344f8e64fE0B4549954acb271e797D0Cb"
  ],
  "numDeployments": 1,
  "solcInputHash": "816200c80748247f1e8b4ace73f060ab",
  "bytecode": "0x60a060405260006005553480156200001657600080fd5b50604051620049673803806200496783398101604081905262000039916200004b565b6001600160a01b03166080526200007d565b6000602082840312156200005e57600080fd5b81516001600160a01b03811681146200007657600080fd5b9392505050565b6080516148a4620000c3600039600081816105db01528181610c6601528181610fa50152818161164c01528181611802015281816118ab01526119c601526148a46000f3fe608060405234801561001057600080fd5b50600436106101cf5760003560e01c8063886fe70b11610104578063bf90f63a116100a2578063dde43cba11610071578063dde43cba146105fd578063e15ac62314610605578063f5cf673b14610618578063f996868b1461062b57600080fd5b8063bf90f63a1461059d578063c4d66de8146105b0578063c5a7b538146105c3578063cbcbb507146105d657600080fd5b80639ff55db9116100de5780639ff55db91461055c578063b022418c1461056f578063b45ac1a914610582578063bb492bf51461058a57600080fd5b8063886fe70b146104bf578063955c2ad7146104e75780639efd6f72146104fa57600080fd5b80635453ba10116101715780636657732f1161014b5780636657732f1461037757806370674ab91461039757806374d945ec146103aa5780637eff4ba8146103e357600080fd5b80635453ba101461031857806357b898831461032b5780635f130b241461033e57600080fd5b806331873e2e116101ad57806331873e2e1461026b57806333028b99146102805780634c0369c314610293578063533f542a146102b457600080fd5b80631b839c77146101d4578063236300dc146101fa5780632a17bf601461020d575b600080fd5b6101e76101e2366004613e3c565b61063e565b6040519081526020015b60405180910390f35b6101e7610208366004613eba565b61069e565b61024661021b366004613f2e565b73ffffffffffffffffffffffffffffffffffffffff9081166000908152603b60205260409020541690565b60405173ffffffffffffffffffffffffffffffffffffffff90911681526020016101f1565b61027e610279366004613f52565b61073b565b005b6101e761028e366004613f87565b61074c565b6102a66102a136600461400c565b6108f8565b6040516101f19291906140b4565b6101e76102c236600461410b565b73ffffffffffffffffffffffffffffffffffffffff808316600090815260016020818152604080842086861685528252808420948816845293909101905220546cffffffffffffffffffffffffff169392505050565b61027e610326366004613e3c565b610c4e565b6101e761033936600461414b565b610cfb565b61024661034c366004613f2e565b73ffffffffffffffffffffffffffffffffffffffff9081166000908152603a60205260409020541690565b61038a610385366004613f2e565b610d15565b6040516101f191906141aa565b6101e76103a53660046141bd565b610e67565b6102466103b8366004613f2e565b73ffffffffffffffffffffffffffffffffffffffff9081166000908152603960205260409020541690565b61049f6103f1366004613e3c565b73ffffffffffffffffffffffffffffffffffffffff91821660009081526001602090815260408083209390941682529190915220546cffffffffffffffffffffffffff8116916affffffffffffffffffffff6d01000000000000000000000000008304169163ffffffff780100000000000000000000000000000000000000000000000082048116927c01000000000000000000000000000000000000000000000000000000009092041690565b6040805194855260208501939093529183015260608201526080016101f1565b6104d26104cd366004613e3c565b610e7e565b604080519283526020830191909152016101f1565b61027e6104f53660046142f5565b610f8d565b61054a610508366004613f2e565b73ffffffffffffffffffffffffffffffffffffffff16600090815260016020526040902060020154700100000000000000000000000000000000900460ff1690565b60405160ff90911681526020016101f1565b6102a661056a3660046141bd565b61118d565b6101e761057d366004613e3c565b61133c565b61038a6113f5565b6102a661059836600461400c565b611464565b6102a66105ab366004614423565b6114fd565b61027e6105be366004613f2e565b611518565b61027e6105d1366004614465565b611634565b6102467f000000000000000000000000000000000000000000000000000000000000000081565b6101e7600281565b61027e610613366004613e3c565b6117ea565b61027e610626366004613e3c565b611893565b61027e6106393660046144ac565b6119ae565b73ffffffffffffffffffffffffffffffffffffffff8281166000908152600160209081526040808320938516835292905220547c0100000000000000000000000000000000000000000000000000000000900463ffffffff165b92915050565b600073ffffffffffffffffffffffffffffffffffffffff8316610722576040517f08c379a000000000000000000000000000000000000000000000000000000000815260206004820152601260248201527f494e56414c49445f544f5f41444452455353000000000000000000000000000060448201526064015b60405180910390fd5b61073186868633338888611e22565b9695505050505050565b610747338483856120b3565b505050565b73ffffffffffffffffffffffffffffffffffffffff8084166000908152603960205260408120549091339186911682146107e2576040517f08c379a000000000000000000000000000000000000000000000000000000000815260206004820152601460248201527f434c41494d45525f554e415554484f52495a45440000000000000000000000006044820152606401610719565b73ffffffffffffffffffffffffffffffffffffffff861661085f576040517f08c379a000000000000000000000000000000000000000000000000000000000815260206004820152601460248201527f494e56414c49445f555345525f414444524553530000000000000000000000006044820152606401610719565b73ffffffffffffffffffffffffffffffffffffffff85166108dc576040517f08c379a000000000000000000000000000000000000000000000000000000000815260206004820152601260248201527f494e56414c49445f544f5f4144445245535300000000000000000000000000006044820152606401610719565b6108eb898989338a8a8a611e22565b9998505050505050505050565b6060806000610908868686612266565b60035490915067ffffffffffffffff8111156109265761092661421a565b60405190808252806020026020018201604052801561094f578160200160208202803683370190505b509250825167ffffffffffffffff81111561096c5761096c61421a565b604051908082528060200260200182016040528015610995578160200160208202803683370190505b50915060005b8151811015610c435760005b8451811015610c3057600381815481106109c3576109c361452f565b9060005260206000200160009054906101000a900473ffffffffffffffffffffffffffffffffffffffff16858281518110610a0057610a0061452f565b602002602001019073ffffffffffffffffffffffffffffffffffffffff16908173ffffffffffffffffffffffffffffffffffffffff168152505060016000848481518110610a5057610a5061452f565b60200260200101516000015173ffffffffffffffffffffffffffffffffffffffff1673ffffffffffffffffffffffffffffffffffffffff1681526020019081526020016000206000016000868381518110610aad57610aad61452f565b602002602001015173ffffffffffffffffffffffffffffffffffffffff1673ffffffffffffffffffffffffffffffffffffffff16815260200190815260200160002060010160008773ffffffffffffffffffffffffffffffffffffffff1673ffffffffffffffffffffffffffffffffffffffff168152602001908152602001600020600001600d9054906101000a90046fffffffffffffffffffffffffffffffff166fffffffffffffffffffffffffffffffff16848281518110610b7357610b7361452f565b60200260200101818151610b87919061458d565b9052508251839083908110610b9e57610b9e61452f565b60200260200101516020015160001415610bb757610c1e565b610bf486868381518110610bcd57610bcd61452f565b6020026020010151858581518110610be757610be761452f565b6020026020010151612464565b848281518110610c0657610c0661452f565b60200260200101818151610c1a919061458d565b9052505b80610c28816145a5565b9150506109a7565b5080610c3b816145a5565b91505061099b565b50505b935093915050565b3373ffffffffffffffffffffffffffffffffffffffff7f00000000000000000000000000000000000000000000000000000000000000001614610ced576040517f08c379a000000000000000000000000000000000000000000000000000000000815260206004820152601560248201527f4f4e4c595f454d495353494f4e5f4d414e4147455200000000000000000000006044820152606401610719565b610cf78282612532565b5050565b6000610d0c85858533333388611e22565b95945050505050565b73ffffffffffffffffffffffffffffffffffffffff81166000908152600160205260408120600201546060916fffffffffffffffffffffffffffffffff909116908167ffffffffffffffff811115610d6f57610d6f61421a565b604051908082528060200260200182016040528015610d98578160200160208202803683370190505b50905060005b826fffffffffffffffffffffffffffffffff16816fffffffffffffffffffffffffffffffff161015610e5f5773ffffffffffffffffffffffffffffffffffffffff80861660009081526001602081815260408084206fffffffffffffffffffffffffffffffff871680865293019091529091205484519216918491908110610e2857610e2861452f565b73ffffffffffffffffffffffffffffffffffffffff9092166020928302919091019091015280610e57816145de565b915050610d9e565b509392505050565b6000610d0c8383610e79888888612266565b612686565b73ffffffffffffffffffffffffffffffffffffffff8083166000818152600160209081526040808320948616835293815283822084517fb1bf962d0000000000000000000000000000000000000000000000000000000081529451929485949193610f809385939263b1bf962d92600480830193928290030181865afa158015610f0c573d6000803e3d6000fd5b505050506040513d601f19601f82011682018060405250810190610f30919061460e565b73ffffffffffffffffffffffffffffffffffffffff8816600090815260016020526040902060020154610f7b90700100000000000000000000000000000000900460ff16600a614747565b612825565b92509250505b9250929050565b3373ffffffffffffffffffffffffffffffffffffffff7f0000000000000000000000000000000000000000000000000000000000000000161461102c576040517f08c379a000000000000000000000000000000000000000000000000000000000815260206004820152601560248201527f4f4e4c595f454d495353494f4e5f4d414e4147455200000000000000000000006044820152606401610719565b60005b81518110156111805781818151811061104a5761104a61452f565b60200260200101516060015173ffffffffffffffffffffffffffffffffffffffff1663b1bf962d6040518163ffffffff1660e01b8152600401602060405180830381865afa1580156110a0573d6000803e3d6000fd5b505050506040513d601f19601f820116820180604052508101906110c4919061460e565b8282815181106110d6576110d661452f565b6020026020010151602001818152505061112a8282815181106110fb576110fb61452f565b6020026020010151608001518383815181106111195761111961452f565b602002602001015160a00151612931565b61116e82828151811061113f5761113f61452f565b60200260200101516080015183838151811061115d5761115d61452f565b602002602001015160c00151612532565b80611178816145a5565b91505061102f565b5061118a81612a97565b50565b73ffffffffffffffffffffffffffffffffffffffff808316600090815260396020526040902054606091829133918691168214611226576040517f08c379a000000000000000000000000000000000000000000000000000000000815260206004820152601460248201527f434c41494d45525f554e415554484f52495a45440000000000000000000000006044820152606401610719565b73ffffffffffffffffffffffffffffffffffffffff86166112a3576040517f08c379a000000000000000000000000000000000000000000000000000000000815260206004820152601460248201527f494e56414c49445f555345525f414444524553530000000000000000000000006044820152606401610719565b73ffffffffffffffffffffffffffffffffffffffff8516611320576040517f08c379a000000000000000000000000000000000000000000000000000000000815260206004820152601260248201527f494e56414c49445f544f5f4144445245535300000000000000000000000000006044820152606401610719565b61132d8888338989613338565b93509350505094509492505050565b60008060005b600454811015610e5f5760016000600483815481106113635761136361452f565b60009182526020808320919091015473ffffffffffffffffffffffffffffffffffffffff9081168452838201949094526040928301822088851683528152828220938916825260019093019092529020546113e1906d010000000000000000000000000090046fffffffffffffffffffffffffffffffff168361458d565b9150806113ed816145a5565b915050611342565b6060600380548060200260200160405190810160405280929190818152602001828054801561145a57602002820191906000526020600020905b815473ffffffffffffffffffffffffffffffffffffffff16815260019091019060200180831161142f575b5050505050905090565b60608073ffffffffffffffffffffffffffffffffffffffff83166114e4576040517f08c379a000000000000000000000000000000000000000000000000000000000815260206004820152601260248201527f494e56414c49445f544f5f4144445245535300000000000000000000000000006044820152606401610719565b6114f18585333387613338565b91509150935093915050565b60608061150d8484333333613338565b915091509250929050565b60065460029060ff168061152b5750303b155b80611537575060055481115b6115c3576040517f08c379a000000000000000000000000000000000000000000000000000000000815260206004820152602e60248201527f436f6e747261637420696e7374616e63652068617320616c726561647920626560448201527f656e20696e697469616c697a65640000000000000000000000000000000000006064820152608401610719565b60065460ff1615801561160157600680547fffffffffffffffffffffffffffffffffffffffffffffffffffffffffffffff0016600117905560058290555b801561074757600680547fffffffffffffffffffffffffffffffffffffffffffffffffffffffffffffff00169055505050565b3373ffffffffffffffffffffffffffffffffffffffff7f000000000000000000000000000000000000000000000000000000000000000016146116d3576040517f08c379a000000000000000000000000000000000000000000000000000000000815260206004820152601560248201527f4f4e4c595f454d495353494f4e5f4d414e4147455200000000000000000000006044820152606401610719565b73ffffffffffffffffffffffffffffffffffffffff83811660008181526001602090815260408083209487168084529482529182902080547bffffffffffffffffffffffffffffffffffffffffffffffffffffffff81167c010000000000000000000000000000000000000000000000000000000063ffffffff8981168281029384179586905587516d01000000000000000000000000009096046affffffffffffffffffffff16808752968601969096529083041694830185905260608301939093526cffffffffffffffffffffffffff9081169216919091176080820152909291907fac1777479f07f3e7c34da8402139d54027a6a260caaae168bdee825ca5580dc59060a00160405180910390a350505050565b3373ffffffffffffffffffffffffffffffffffffffff7f00000000000000000000000000000000000000000000000000000000000000001614611889576040517f08c379a000000000000000000000000000000000000000000000000000000000815260206004820152601560248201527f4f4e4c595f454d495353494f4e5f4d414e4147455200000000000000000000006044820152606401610719565b610cf78282612931565b3373ffffffffffffffffffffffffffffffffffffffff7f00000000000000000000000000000000000000000000000000000000000000001614611932576040517f08c379a000000000000000000000000000000000000000000000000000000000815260206004820152601560248201527f4f4e4c595f454d495353494f4e5f4d414e4147455200000000000000000000006044820152606401610719565b73ffffffffffffffffffffffffffffffffffffffff82811660008181526039602052604080822080547fffffffffffffffffffffffff0000000000000000000000000000000000000000169486169485179055517f4925eafc82d0c4d67889898eeed64b18488ab19811e61620f387026dec126a289190a35050565b3373ffffffffffffffffffffffffffffffffffffffff7f00000000000000000000000000000000000000000000000000000000000000001614611a4d576040517f08c379a000000000000000000000000000000000000000000000000000000000815260206004820152601560248201527f4f4e4c595f454d495353494f4e5f4d414e4147455200000000000000000000006044820152606401610719565b828114611ab6576040517f08c379a000000000000000000000000000000000000000000000000000000000815260206004820152600d60248201527f494e56414c49445f494e505554000000000000000000000000000000000000006044820152606401610719565b60005b83811015611e1a5773ffffffffffffffffffffffffffffffffffffffff86166000908152600160205260408120908181888886818110611afb57611afb61452f565b9050602002016020810190611b109190613f2e565b73ffffffffffffffffffffffffffffffffffffffff16815260208101919091526040016000206002830154909150700100000000000000000000000000000000900460ff168015801590611b86575081547801000000000000000000000000000000000000000000000000900463ffffffff1615155b611bec576040517f08c379a000000000000000000000000000000000000000000000000000000000815260206004820152601b60248201527f444953545249425554494f4e5f444f45535f4e4f545f455849535400000000006044820152606401610719565b6000611c71838b73ffffffffffffffffffffffffffffffffffffffff1663b1bf962d6040518163ffffffff1660e01b8152600401602060405180830381865afa158015611c3d573d6000803e3d6000fd5b505050506040513d601f19601f82011682018060405250810190611c61919061460e565b611c6c85600a614756565b613820565b5083549091506d010000000000000000000000000090046affffffffffffffffffffff16878787818110611ca757611ca761452f565b9050602002016020810190611cbc9190614762565b84546affffffffffffffffffffff919091166d0100000000000000000000000000027fffffffffffffffff0000000000000000000000ffffffffffffffffffffffffff909116178455898987818110611d1757611d1761452f565b9050602002016020810190611d2c9190613f2e565b73ffffffffffffffffffffffffffffffffffffffff168b73ffffffffffffffffffffffffffffffffffffffff167fac1777479f07f3e7c34da8402139d54027a6a260caaae168bdee825ca5580dc5838b8b8b818110611d8d57611d8d61452f565b9050602002016020810190611da29190614762565b8854604080519384526affffffffffffffffffffff90921660208401527c0100000000000000000000000000000000000000000000000000000000900463ffffffff1690820181905260608201526080810186905260a00160405180910390a350505050508080611e12906145a5565b915050611ab9565b505050505050565b600085611e31575060006120a8565b6000611e4785611e428b8b89612266565b6139ae565b60005b8881101561202e5760008a8a83818110611e6657611e6661452f565b9050602002016020810190611e7b9190613f2e565b73ffffffffffffffffffffffffffffffffffffffff81811660009081526001602081815260408084208b861685528252808420948d1684529390910190522054909150611eeb906d010000000000000000000000000090046fffffffffffffffffffffffffffffffff168461458d565b9250888311611f5e5773ffffffffffffffffffffffffffffffffffffffff80821660009081526001602081815260408084208a861685528252808420948c1684529390910190522080547fffffff00000000000000000000000000000000ffffffffffffffffffffffffff16905561201b565b6000611f6a8a8561477d565b9050611f76818561477d565b9350611f8181613a2f565b73ffffffffffffffffffffffffffffffffffffffff92831660009081526001602081815260408084208b881685528252808420968d1684529590910190529290922080546fffffffffffffffffffffffffffffffff939093166d0100000000000000000000000000027fffffff00000000000000000000000000000000ffffffffffffffffffffffffff909316929092179091555061202e565b5080612026816145a5565b915050611e4a565b508061203e5760009150506120a8565b612049848483613ad5565b6040805173ffffffffffffffffffffffffffffffffffffffff8881168252602082018490528087169286821692918916917fc052130bc4ef84580db505783484b067ea8b71b3bca78a7e12db7aea8658f004910160405180910390a490505b979650505050505050565b73ffffffffffffffffffffffffffffffffffffffff841660009081526001602052604090206002015460ff700100000000000000000000000000000000820416600a0a906fffffffffffffffffffffffffffffffff1680612115575050612260565b60005b81816fffffffffffffffffffffffffffffffff16101561225c5773ffffffffffffffffffffffffffffffffffffffff80881660009081526001602081815260408084206fffffffffffffffffffffffffffffffff871685529283018252808420549094168084529190529181209080612192838989613820565b915091506000806121a6858d8d878d613c01565b9150915082806121b35750805b1561224a578b73ffffffffffffffffffffffffffffffffffffffff168673ffffffffffffffffffffffffffffffffffffffff168e73ffffffffffffffffffffffffffffffffffffffff167f3303facd24627943a92e9dc87cfbb34b15c49b726eec3ad3487c16be9ab8efe8878887604051612241939291909283526020830191909152604082015260600190565b60405180910390a45b50506001909401935061211892505050565b5050505b50505050565b60608267ffffffffffffffff8111156122815761228161421a565b6040519080825280602002602001820160405280156122ec57816020015b6122d96040518060600160405280600073ffffffffffffffffffffffffffffffffffffffff16815260200160008152602001600081525090565b81526020019060019003908161229f5790505b50905060005b83811015610e5f5784848281811061230c5761230c61452f565b90506020020160208101906123219190613f2e565b8282815181106123335761233361452f565b602090810291909101015173ffffffffffffffffffffffffffffffffffffffff909116905284848281811061236a5761236a61452f565b905060200201602081019061237f9190613f2e565b6040517f0afbcdc900000000000000000000000000000000000000000000000000000000815273ffffffffffffffffffffffffffffffffffffffff85811660048301529190911690630afbcdc9906024016040805180830381865afa1580156123ec573d6000803e3d6000fd5b505050506040513d601f19601f820116820180604052508101906124109190614794565b8383815181106124225761242261452f565b602002602001015160200184848151811061243f5761243f61452f565b602090810291909101015160400191909152528061245c816145a5565b9150506122f2565b805173ffffffffffffffffffffffffffffffffffffffff9081166000908152600160208181526040808420878616855282528084208651909516845291905281206002015490919082906124d090700100000000000000000000000000000000900460ff16600a614747565b905060006124e383866040015184612825565b60208088015173ffffffffffffffffffffffffffffffffffffffff8b166000908152600188019092526040909120549193506120a892509083906cffffffffffffffffffffffffff1685613d60565b60008173ffffffffffffffffffffffffffffffffffffffff166350d25bcd6040518163ffffffff1660e01b8152600401602060405180830381865afa15801561257f573d6000803e3d6000fd5b505050506040513d601f19601f820116820180604052508101906125a3919061460e565b1361260a576040517f08c379a000000000000000000000000000000000000000000000000000000000815260206004820152601860248201527f4f5241434c455f4d5553545f52455455524e5f505249434500000000000000006044820152606401610719565b73ffffffffffffffffffffffffffffffffffffffff8281166000818152603b602052604080822080547fffffffffffffffffffffffff0000000000000000000000000000000000000000169486169485179055517f1a1cd5483e52e60b9ff7f3b9d1db3bbd9e9d21c6324ad3a8c79dba9b75e62f4d9190a35050565b6000805b8251811015610e5f578281815181106126a5576126a561452f565b6020026020010151602001516000141561275457600160008483815181106126cf576126cf61452f565b6020908102919091018101515173ffffffffffffffffffffffffffffffffffffffff908116835282820193909352604091820160009081208885168252825282812093891681526001909301905290205461274d906d010000000000000000000000000090046fffffffffffffffffffffffffffffffff168361458d565b9150612813565b6001600084838151811061276a5761276a61452f565b6020908102919091018101515173ffffffffffffffffffffffffffffffffffffffff908116835282820193909352604091820160009081208885168252825282812093891681526001909301905290205483516d01000000000000000000000000009091046fffffffffffffffffffffffffffffffff16906127fc9087908790879086908110610be757610be761452f565b612806919061458d565b612810908361458d565b91505b8061281d816145a5565b91505061268a565b825460009081906cffffffffffffffffffffffffff81169063ffffffff7c010000000000000000000000000000000000000000000000000000000082048116916affffffffffffffffffffff6d0100000000000000000000000000820416917801000000000000000000000000000000000000000000000000909104168115806128ad575087155b806128b757504281145b806128c25750828110155b156128d65783849550955050505050610c46565b60008342116128e557426128e7565b835b905060006128f5838361477d565b905060008961290483876147b8565b61290e91906147b8565b8b900490508661291e818361458d565b9850985050505050505050935093915050565b73ffffffffffffffffffffffffffffffffffffffff81166129ae576040517f08c379a000000000000000000000000000000000000000000000000000000000815260206004820152601860248201527f53545241544547595f43414e5f4e4f545f42455f5a45524f00000000000000006044820152606401610719565b6001813b151514612a1b576040517f08c379a000000000000000000000000000000000000000000000000000000000815260206004820152601960248201527f53545241544547595f4d5553545f42455f434f4e5452414354000000000000006044820152606401610719565b73ffffffffffffffffffffffffffffffffffffffff8281166000818152603a602052604080822080547fffffffffffffffffffffffff0000000000000000000000000000000000000000169486169485179055517f8ca1d928f1d72493a6b78c4f74aabde976bc37ffe2570f2a1ce5a8abd3dde0aa9190a35050565b60005b8151811015610cf75760016000838381518110612ab957612ab961452f565b6020908102919091018101516060015173ffffffffffffffffffffffffffffffffffffffff16825281019190915260400160002060020154700100000000000000000000000000000000900460ff16612b85576004828281518110612b2057612b2061452f565b6020908102919091018101516060015182546001810184556000938452919092200180547fffffffffffffffffffffffff00000000000000000000000000000000000000001673ffffffffffffffffffffffffffffffffffffffff9092169190911790555b6000828281518110612b9957612b9961452f565b60200260200101516060015173ffffffffffffffffffffffffffffffffffffffff1663313ce5676040518163ffffffff1660e01b8152600401602060405180830381865afa158015612bef573d6000803e3d6000fd5b505050506040513d601f19601f82011682018060405250810190612c1391906147f5565b60016000858581518110612c2957612c2961452f565b60200260200101516060015173ffffffffffffffffffffffffffffffffffffffff1673ffffffffffffffffffffffffffffffffffffffff16815260200190815260200160002060020160106101000a81548160ff021916908360ff160217905560ff169050600060016000858581518110612ca657612ca661452f565b60200260200101516060015173ffffffffffffffffffffffffffffffffffffffff1673ffffffffffffffffffffffffffffffffffffffff1681526020019081526020016000206000016000858581518110612d0357612d0361452f565b6020908102919091018101516080015173ffffffffffffffffffffffffffffffffffffffff16825281019190915260400160002080549091507801000000000000000000000000000000000000000000000000900463ffffffff16612f7257838381518110612d7457612d7461452f565b60200260200101516080015160016000868681518110612d9657612d9661452f565b60200260200101516060015173ffffffffffffffffffffffffffffffffffffffff1673ffffffffffffffffffffffffffffffffffffffff168152602001908152602001600020600101600060016000888881518110612df757612df761452f565b60200260200101516060015173ffffffffffffffffffffffffffffffffffffffff1673ffffffffffffffffffffffffffffffffffffffff16815260200190815260200160002060020160009054906101000a90046fffffffffffffffffffffffffffffffff166fffffffffffffffffffffffffffffffff166fffffffffffffffffffffffffffffffff16815260200190815260200160002060006101000a81548173ffffffffffffffffffffffffffffffffffffffff021916908373ffffffffffffffffffffffffffffffffffffffff16021790555060016000858581518110612ee357612ee361452f565b6020908102919091018101516060015173ffffffffffffffffffffffffffffffffffffffff168252810191909152604001600090812060020180546fffffffffffffffffffffffffffffffff1691612f3a836145de565b91906101000a8154816fffffffffffffffffffffffffffffffff02191690836fffffffffffffffffffffffffffffffff160217905550505b60026000858581518110612f8857612f8861452f565b6020908102919091018101516080015173ffffffffffffffffffffffffffffffffffffffff1682528101919091526040016000205460ff166130b257600160026000868681518110612fdc57612fdc61452f565b60200260200101516080015173ffffffffffffffffffffffffffffffffffffffff1673ffffffffffffffffffffffffffffffffffffffff16815260200190815260200160002060006101000a81548160ff021916908315150217905550600384848151811061304d5761304d61452f565b6020908102919091018101516080015182546001810184556000938452919092200180547fffffffffffffffffffffffff00000000000000000000000000000000000000001673ffffffffffffffffffffffffffffffffffffffff9092169190911790555b60006130e3828686815181106130ca576130ca61452f565b60200260200101516020015185600a611c6c9190614756565b50825486519192506d010000000000000000000000000081046affffffffffffffffffffff16917c010000000000000000000000000000000000000000000000000000000090910463ffffffff16908790879081106131445761314461452f565b60209081029190910101515184546affffffffffffffffffffff9091166d0100000000000000000000000000027fffffffffffffffff0000000000000000000000ffffffffffffffffffffffffff90911617845586518790879081106131ac576131ac61452f565b602090810291909101015160400151845463ffffffff9091167c0100000000000000000000000000000000000000000000000000000000027bffffffffffffffffffffffffffffffffffffffffffffffffffffffff909116178455865187908790811061321b5761321b61452f565b60200260200101516080015173ffffffffffffffffffffffffffffffffffffffff1687878151811061324f5761324f61452f565b60200260200101516060015173ffffffffffffffffffffffffffffffffffffffff167fac1777479f07f3e7c34da8402139d54027a6a260caaae168bdee825ca5580dc5848a8a815181106132a5576132a561452f565b602002602001015160000151858c8c815181106132c4576132c461452f565b602002602001015160400151896040516133189594939291906affffffffffffffffffffff958616815293909416602084015263ffffffff9182166040840152166060820152608081019190915260a00190565b60405180910390a350505050508080613330906145a5565b915050612a9a565b60035460609081908067ffffffffffffffff8111156133595761335961421a565b604051908082528060200260200182016040528015613382578160200160208202803683370190505b5092508067ffffffffffffffff81111561339e5761339e61421a565b6040519080825280602002602001820160405280156133c7578160200160208202803683370190505b5091506133d985611e428a8a89612266565b60005b878110156136e85760008989838181106133f8576133f861452f565b905060200201602081019061340d9190613f2e565b905060005b838110156136d357600073ffffffffffffffffffffffffffffffffffffffff168682815181106134445761344461452f565b602002602001015173ffffffffffffffffffffffffffffffffffffffff1614156134f3576003818154811061347b5761347b61452f565b9060005260206000200160009054906101000a900473ffffffffffffffffffffffffffffffffffffffff168682815181106134b8576134b861452f565b602002602001019073ffffffffffffffffffffffffffffffffffffffff16908173ffffffffffffffffffffffffffffffffffffffff16815250505b73ffffffffffffffffffffffffffffffffffffffff821660009081526001602052604081208751829089908590811061352e5761352e61452f565b60209081029190910181015173ffffffffffffffffffffffffffffffffffffffff90811683528282019390935260409182016000908120938d168152600190930190529020546d010000000000000000000000000090046fffffffffffffffffffffffffffffffff16905080156136c057808683815181106135b2576135b261452f565b602002602001018181516135c6919061458d565b90525073ffffffffffffffffffffffffffffffffffffffff83166000908152600160205260408120885182908a90869081106136045761360461452f565b602002602001015173ffffffffffffffffffffffffffffffffffffffff1673ffffffffffffffffffffffffffffffffffffffff16815260200190815260200160002060010160008b73ffffffffffffffffffffffffffffffffffffffff1673ffffffffffffffffffffffffffffffffffffffff168152602001908152602001600020600001600d6101000a8154816fffffffffffffffffffffffffffffffff02191690836fffffffffffffffffffffffffffffffff1602179055505b50806136cb816145a5565b915050613412565b505080806136e0906145a5565b9150506133dc565b5060005b81811015613814576137318585838151811061370a5761370a61452f565b60200260200101518584815181106137245761372461452f565b6020026020010151613ad5565b8473ffffffffffffffffffffffffffffffffffffffff1684828151811061375a5761375a61452f565b602002602001015173ffffffffffffffffffffffffffffffffffffffff168773ffffffffffffffffffffffffffffffffffffffff167fc052130bc4ef84580db505783484b067ea8b71b3bca78a7e12db7aea8658f0048a8786815181106137c3576137c361452f565b60200260200101516040516137fa92919073ffffffffffffffffffffffffffffffffffffffff929092168252602082015260400190565b60405180910390a48061380c816145a5565b9150506136ec565b50509550959350505050565b600080600080613831878787612825565b91509150600082821461394a576cffffffffffffffffffffffffff8211156138b5576040517f08c379a000000000000000000000000000000000000000000000000000000000815260206004820152600e60248201527f494e4445585f4f564552464c4f570000000000000000000000000000000000006044820152606401610719565b5086547fffffffffffffffffffffffffffffffffffffff00000000000000000000000000166cffffffffffffffffffffffffff821617875560016138f842613d84565b885463ffffffff919091167801000000000000000000000000000000000000000000000000027fffffffff00000000ffffffffffffffffffffffffffffffffffffffffffffffff9091161788556139a1565b61395342613d84565b885463ffffffff919091167801000000000000000000000000000000000000000000000000027fffffffff00000000ffffffffffffffffffffffffffffffffffffffffffffffff9091161788555b9097909650945050505050565b60005b815181101561074757613a1d8282815181106139cf576139cf61452f565b602002602001015160000151848484815181106139ee576139ee61452f565b602002602001015160200151858581518110613a0c57613a0c61452f565b6020026020010151604001516120b3565b80613a27816145a5565b9150506139b1565b60006fffffffffffffffffffffffffffffffff821115613ad1576040517f08c379a000000000000000000000000000000000000000000000000000000000815260206004820152602760248201527f53616665436173743a2076616c756520646f65736e27742066697420696e203160448201527f32382062697473000000000000000000000000000000000000000000000000006064820152608401610719565b5090565b73ffffffffffffffffffffffffffffffffffffffff8281166000818152603a60205260408082205490517f16beb9820000000000000000000000000000000000000000000000000000000081528785166004820152602481019390935260448301859052909216919082906316beb982906064016020604051808303816000875af1158015613b68573d6000803e3d6000fd5b505050506040513d601f19601f82011682018060405250810190613b8c9190614818565b9050600181151514613bfa576040517f08c379a000000000000000000000000000000000000000000000000000000000815260206004820152600e60248201527f5452414e534645525f4552524f520000000000000000000000000000000000006044820152606401610719565b5050505050565b73ffffffffffffffffffffffffffffffffffffffff8416600090815260018601602052604081205481906cffffffffffffffffffffffffff1681858214801590613d515773ffffffffffffffffffffffffffffffffffffffff8916600090815260018b016020526040902080547fffffffffffffffffffffffffffffffffffffff00000000000000000000000000166cffffffffffffffffffffffffff89161790558715613d5157613cb588888589613d60565b9150613cc082613a2f565b73ffffffffffffffffffffffffffffffffffffffff8a16600090815260018c01602052604090208054600d90613d1a9084906d010000000000000000000000000090046fffffffffffffffffffffffffffffffff1661483a565b92506101000a8154816fffffffffffffffffffffffffffffffff02191690836fffffffffffffffffffffffffffffffff1602179055505b90999098509650505050505050565b600080613d6d848661477d565b613d7790876147b8565b9290920495945050505050565b600063ffffffff821115613ad1576040517f08c379a000000000000000000000000000000000000000000000000000000000815260206004820152602660248201527f53616665436173743a2076616c756520646f65736e27742066697420696e203360448201527f32206269747300000000000000000000000000000000000000000000000000006064820152608401610719565b73ffffffffffffffffffffffffffffffffffffffff8116811461118a57600080fd5b60008060408385031215613e4f57600080fd5b8235613e5a81613e1a565b91506020830135613e6a81613e1a565b809150509250929050565b60008083601f840112613e8757600080fd5b50813567ffffffffffffffff811115613e9f57600080fd5b6020830191508360208260051b8501011115610f8657600080fd5b600080600080600060808688031215613ed257600080fd5b853567ffffffffffffffff811115613ee957600080fd5b613ef588828901613e75565b909650945050602086013592506040860135613f1081613e1a565b91506060860135613f2081613e1a565b809150509295509295909350565b600060208284031215613f4057600080fd5b8135613f4b81613e1a565b9392505050565b600080600060608486031215613f6757600080fd5b8335613f7281613e1a565b95602085013595506040909401359392505050565b60008060008060008060a08789031215613fa057600080fd5b863567ffffffffffffffff811115613fb757600080fd5b613fc389828a01613e75565b909750955050602087013593506040870135613fde81613e1a565b92506060870135613fee81613e1a565b91506080870135613ffe81613e1a565b809150509295509295509295565b60008060006040848603121561402157600080fd5b833567ffffffffffffffff81111561403857600080fd5b61404486828701613e75565b909450925050602084013561405881613e1a565b809150509250925092565b600081518084526020808501945080840160005b838110156140a957815173ffffffffffffffffffffffffffffffffffffffff1687529582019590820190600101614077565b509495945050505050565b6040815260006140c76040830185614063565b82810360208481019190915284518083528582019282019060005b818110156140fe578451835293830193918301916001016140e2565b5090979650505050505050565b60008060006060848603121561412057600080fd5b833561412b81613e1a565b9250602084013561413b81613e1a565b9150604084013561405881613e1a565b6000806000806060858703121561416157600080fd5b843567ffffffffffffffff81111561417857600080fd5b61418487828801613e75565b90955093505060208501359150604085013561419f81613e1a565b939692955090935050565b602081526000613f4b6020830184614063565b600080600080606085870312156141d357600080fd5b843567ffffffffffffffff8111156141ea57600080fd5b6141f687828801613e75565b909550935050602085013561420a81613e1a565b9150604085013561419f81613e1a565b7f4e487b7100000000000000000000000000000000000000000000000000000000600052604160045260246000fd5b60405160e0810167ffffffffffffffff8111828210171561426c5761426c61421a565b60405290565b604051601f82017fffffffffffffffffffffffffffffffffffffffffffffffffffffffffffffffe016810167ffffffffffffffff811182821017156142b9576142b961421a565b604052919050565b80356affffffffffffffffffffff811681146142dc57600080fd5b919050565b803563ffffffff811681146142dc57600080fd5b6000602080838503121561430857600080fd5b823567ffffffffffffffff8082111561432057600080fd5b818501915085601f83011261433457600080fd5b8135818111156143465761434661421a565b614354848260051b01614272565b818152848101925060e091820284018501918883111561437357600080fd5b938501935b828510156144175780858a0312156143905760008081fd5b614398614249565b6143a1866142c1565b8152868601358782015260406143b88188016142e1565b908201526060868101356143cb81613e1a565b908201526080868101356143de81613e1a565b9082015260a0868101356143f181613e1a565b9082015260c08681013561440481613e1a565b9082015284529384019392850192614378565b50979650505050505050565b6000806020838503121561443657600080fd5b823567ffffffffffffffff81111561444d57600080fd5b61445985828601613e75565b90969095509350505050565b60008060006060848603121561447a57600080fd5b833561448581613e1a565b9250602084013561449581613e1a565b91506144a3604085016142e1565b90509250925092565b6000806000806000606086880312156144c457600080fd5b85356144cf81613e1a565b9450602086013567ffffffffffffffff808211156144ec57600080fd5b6144f889838a01613e75565b9096509450604088013591508082111561451157600080fd5b5061451e88828901613e75565b969995985093965092949392505050565b7f4e487b7100000000000000000000000000000000000000000000000000000000600052603260045260246000fd5b7f4e487b7100000000000000000000000000000000000000000000000000000000600052601160045260246000fd5b600082198211156145a0576145a061455e565b500190565b60007fffffffffffffffffffffffffffffffffffffffffffffffffffffffffffffffff8214156145d7576145d761455e565b5060010190565b60006fffffffffffffffffffffffffffffffff808316818114156146045761460461455e565b6001019392505050565b60006020828403121561462057600080fd5b5051919050565b600181815b8085111561468057817fffffffffffffffffffffffffffffffffffffffffffffffffffffffffffffffff048211156146665761466661455e565b8085161561467357918102915b93841c939080029061462c565b509250929050565b60008261469757506001610698565b816146a457506000610698565b81600181146146ba57600281146146c4576146e0565b6001915050610698565b60ff8411156146d5576146d561455e565b50506001821b610698565b5060208310610133831016604e8410600b8410161715614703575081810a610698565b61470d8383614627565b807fffffffffffffffffffffffffffffffffffffffffffffffffffffffffffffffff0482111561473f5761473f61455e565b029392505050565b6000613f4b60ff841683614688565b6000613f4b8383614688565b60006020828403121561477457600080fd5b613f4b826142c1565b60008282101561478f5761478f61455e565b500390565b600080604083850312156147a757600080fd5b505080516020909101519092909150565b6000817fffffffffffffffffffffffffffffffffffffffffffffffffffffffffffffffff04831182151516156147f0576147f061455e565b500290565b60006020828403121561480757600080fd5b815160ff81168114613f4b57600080fd5b60006020828403121561482a57600080fd5b81518015158114613f4b57600080fd5b60006fffffffffffffffffffffffffffffffff8083168185168083038211156148655761486561455e565b0194935050505056fea26469706673582212200923ca4d1b679a3351dabd7ec927e09f27adc158c656c218f7dfefdf75d8a80364736f6c634300080a0033",
  "devdoc": {
    "author": "Aave*",
    "kind": "dev",
    "methods": {
      "claimAllRewards(address[],address)": {
        "details": "Claims all rewards for a user to the desired address, on all the assets of the pool, accumulating the pending rewards",
        "params": {
          "assets": "The list of assets to check eligible distributions before claiming rewards",
          "to": "The address that will be receiving the rewards"
        },
        "returns": {
          "claimedAmounts": "List that contains the claimed amount per reward, following same order as \"rewardList\"*",
          "rewardsList": "List of addresses of the reward tokens"
        }
      },
      "claimAllRewardsOnBehalf(address[],address,address)": {
        "details": "Claims all rewards for a user on behalf, on all the assets of the pool, accumulating the pending rewards. The caller must be whitelisted via \"allowClaimOnBehalf\" function by the RewardsAdmin role manager",
        "params": {
          "assets": "The list of assets to check eligible distributions before claiming rewards",
          "to": "The address that will be receiving the rewards",
          "user": "The address to check and claim rewards"
        },
        "returns": {
          "claimedAmounts": "List that contains the claimed amount per reward, following same order as \"rewardsList\"*",
          "rewardsList": "List of addresses of the reward tokens"
        }
      },
      "claimAllRewardsToSelf(address[])": {
        "details": "Claims all reward for msg.sender, on all the assets of the pool, accumulating the pending rewards",
        "params": {
          "assets": "The list of assets to check eligible distributions before claiming rewards"
        },
        "returns": {
          "claimedAmounts": "List that contains the claimed amount per reward, following same order as \"rewardsList\"*",
          "rewardsList": "List of addresses of the reward tokens"
        }
      },
      "claimRewards(address[],uint256,address,address)": {
        "details": "Claims reward for a user to the desired address, on all the assets of the pool, accumulating the pending rewards",
        "params": {
          "amount": "The amount of rewards to claim",
          "assets": "List of assets to check eligible distributions before claiming rewards",
          "reward": "The address of the reward token",
          "to": "The address that will be receiving the rewards"
        },
        "returns": {
          "_0": "The amount of rewards claimed*"
        }
      },
      "claimRewardsOnBehalf(address[],uint256,address,address,address)": {
        "details": "Claims reward for a user on behalf, on all the assets of the pool, accumulating the pending rewards. The caller must be whitelisted via \"allowClaimOnBehalf\" function by the RewardsAdmin role manager",
        "params": {
          "amount": "The amount of rewards to claim",
          "assets": "The list of assets to check eligible distributions before claiming rewards",
          "reward": "The address of the reward token",
          "to": "The address that will be receiving the rewards",
          "user": "The address to check and claim rewards"
        },
        "returns": {
          "_0": "The amount of rewards claimed*"
        }
      },
      "claimRewardsToSelf(address[],uint256,address)": {
        "details": "Claims reward for msg.sender, on all the assets of the pool, accumulating the pending rewards",
        "params": {
          "amount": "The amount of rewards to claim",
          "assets": "The list of assets to check eligible distributions before claiming rewards",
          "reward": "The address of the reward token"
        },
        "returns": {
          "_0": "The amount of rewards claimed*"
        }
      },
      "configureAssets((uint88,uint256,uint32,address,address,address,address)[])": {
        "details": "Configure assets to incentivize with an emission of rewards per second until the end of distribution.",
        "params": {
          "config": "The assets configuration input, the list of structs contains the following fields:   uint104 emissionPerSecond: The emission per second following rewards unit decimals.   uint256 totalSupply: The total supply of the asset to incentivize   uint40 distributionEnd: The end of the distribution of the incentives for an asset   address asset: The asset address to incentivize   address reward: The reward token address   ITransferStrategy transferStrategy: The TransferStrategy address with the install hook and claim logic.   IEACAggregatorProxy rewardOracle: The Price Oracle of a reward to visualize the incentives at the UI Frontend.                                     Must follow Chainlink Aggregator IEACAggregatorProxy interface to be compatible."
        }
      },
      "getAllUserRewards(address[],address)": {
        "details": "Returns a list all rewards of a user, including already accrued and unrealized claimable rewards",
        "params": {
          "assets": "List of incentivized assets to check eligible distributions",
          "user": "The address of the user"
        },
        "returns": {
          "rewardsList": "The list of reward addresses",
          "unclaimedAmounts": "The list of unclaimed amount of rewards*"
        }
      },
      "getAssetDecimals(address)": {
        "details": "Returns the decimals of an asset to calculate the distribution delta",
        "params": {
          "asset": "The address to retrieve decimals"
        },
        "returns": {
          "_0": "The decimals of an underlying asset"
        }
      },
      "getAssetIndex(address,address)": {
        "details": "Calculates the next value of an specific distribution index, with validations.",
        "params": {
          "asset": "The incentivized asset",
          "reward": "The reward token of the incentivized asset"
        },
        "returns": {
          "_0": "The old index of the asset distribution",
          "_1": "The new index of the asset distribution*"
        }
      },
      "getClaimer(address)": {
        "details": "Returns the whitelisted claimer for a certain address (0x0 if not set)",
        "params": {
          "user": "The address of the user"
        },
        "returns": {
          "_0": "The claimer address"
        }
      },
      "getDistributionEnd(address,address)": {
        "details": "Gets the end date for the distribution",
        "params": {
          "asset": "The incentivized asset",
          "reward": "The reward token of the incentivized asset"
        },
        "returns": {
          "_0": "The timestamp with the end of the distribution, in unix time format*"
        }
      },
      "getRewardOracle(address)": {
        "details": "Get the price aggregator oracle address",
        "params": {
          "reward": "The address of the reward"
        },
        "returns": {
          "_0": "The price oracle of the reward"
        }
      },
      "getRewardsByAsset(address)": {
        "details": "Returns the list of available reward token addresses of an incentivized asset",
        "params": {
          "asset": "The incentivized asset"
        },
        "returns": {
          "_0": "List of rewards addresses of the input asset*"
        }
      },
      "getRewardsData(address,address)": {
        "details": "Returns the configuration of the distribution reward for a certain asset",
        "params": {
          "asset": "The incentivized asset",
          "reward": "The reward token of the incentivized asset"
        },
        "returns": {
          "_0": "The index of the asset distribution",
          "_1": "The emission per second of the reward distribution",
          "_2": "The timestamp of the last update of the index",
          "_3": "The timestamp of the distribution end*"
        }
      },
      "getRewardsList()": {
        "details": "Returns the list of available reward addresses",
        "returns": {
          "_0": "List of rewards supported in this contract*"
        }
      },
      "getTransferStrategy(address)": {
        "details": "Returns the Transfer Strategy implementation contract address being used for a reward address",
        "params": {
          "reward": "The address of the reward"
        },
        "returns": {
          "_0": "The address of the TransferStrategy contract"
        }
      },
      "getUserAccruedRewards(address,address)": {
        "details": "Returns the accrued rewards balance of a user, not including virtually accrued rewards since last distribution.",
        "params": {
          "reward": "The address of the reward token",
          "user": "The address of the user"
        },
        "returns": {
          "_0": "Unclaimed rewards, not including new distributions*"
        }
      },
      "getUserAssetIndex(address,address,address)": {
        "details": "Returns the index of a user on a reward distribution",
        "params": {
          "asset": "The incentivized asset",
          "reward": "The reward token of the incentivized asset",
          "user": "Address of the user"
        },
        "returns": {
          "_0": "The current user asset index, not including new distributions*"
        }
      },
      "getUserRewards(address[],address,address)": {
        "details": "Returns a single rewards balance of a user, including virtually accrued and unrealized claimable rewards.",
        "params": {
          "assets": "List of incentivized assets to check eligible distributions",
          "reward": "The address of the reward token",
          "user": "The address of the user"
        },
        "returns": {
          "_0": "The rewards amount*"
        }
      },
      "handleAction(address,uint256,uint256)": {
        "details": "Called by the corresponding asset on transfer hook in order to update the rewards distribution.",
        "params": {
          "totalSupply": "The total supply of the asset prior to user balance change*",
          "user": "The address of the user whose asset balance has changed ",
          "userBalance": "The previous user balance prior to balance change "
        }
      },
      "initialize(address)": {
        "details": "Initialize for RewardsControllerIt expects an address as argument since its initialized via PoolAddressesProvider._updateImpl()*"
      },
      "setClaimer(address,address)": {
        "details": "Whitelists an address to claim the rewards on behalf of another address",
        "params": {
          "claimer": "The address of the claimer",
          "user": "The address of the user"
        }
      },
      "setDistributionEnd(address,address,uint32)": {
        "details": "Sets the end date for the distribution",
        "params": {
          "asset": "The asset to incentivize",
          "newDistributionEnd": "The end date of the incentivization, in unix time format*",
          "reward": "The reward token that incentives the asset"
        }
      },
      "setEmissionPerSecond(address,address[],uint88[])": {
        "details": "Sets the emission per second of a set of reward distributions",
        "params": {
          "asset": "The asset is being incentivized",
          "newEmissionsPerSecond": "List of new reward emissions per second",
          "rewards": "List of reward addresses are being distributed"
        }
      },
      "setRewardOracle(address,address)": {
        "details": "Sets an Aave Oracle contract to enforce rewards with a source of value.",
        "params": {
          "reward": "The address of the reward to set the price aggregator",
          "rewardOracle": "The address of price aggregator that follows IEACAggregatorProxy interface"
        }
      },
      "setTransferStrategy(address,address)": {
        "details": "Sets a TransferStrategy logic contract that determines the logic of the rewards transfer",
        "params": {
          "reward": "The address of the reward token",
          "transferStrategy": "The address of the TransferStrategy logic contract"
        }
      }
    },
    "title": "RewardsController",
    "version": 1
  },
  "userdoc": {
    "kind": "user",
    "methods": {
      "setRewardOracle(address,address)": {
        "notice": "At the moment of reward configuration, the Incentives Controller performs a check to see if the reward asset oracle is compatible with IEACAggregator proxy. This check is enforced for integrators to be able to show incentives at the current Aave UI without the need to setup an external price registry"
      }
    },
    "notice": "Abstract contract template to build Distributors contracts for ERC20 rewards to protocol participants",
    "version": 1
  },
  "storageLayout": {
    "storage": [
      {
        "astId": 36526,
        "contract": "@aave/periphery-v3/contracts/rewards/RewardsController.sol:RewardsController",
        "label": "_emissionManager",
        "offset": 0,
        "slot": "0",
        "type": "t_address"
      },
      {
        "astId": 36531,
        "contract": "@aave/periphery-v3/contracts/rewards/RewardsController.sol:RewardsController",
        "label": "_assets",
        "offset": 0,
        "slot": "1",
        "type": "t_mapping(t_address,t_struct(AssetData)38617_storage)"
      },
      {
        "astId": 36535,
        "contract": "@aave/periphery-v3/contracts/rewards/RewardsController.sol:RewardsController",
        "label": "_isRewardEnabled",
        "offset": 0,
        "slot": "2",
        "type": "t_mapping(t_address,t_bool)"
      },
      {
        "astId": 36538,
        "contract": "@aave/periphery-v3/contracts/rewards/RewardsController.sol:RewardsController",
        "label": "_rewardsList",
        "offset": 0,
        "slot": "3",
        "type": "t_array(t_address)dyn_storage"
      },
      {
        "astId": 36541,
        "contract": "@aave/periphery-v3/contracts/rewards/RewardsController.sol:RewardsController",
        "label": "_assetsList",
        "offset": 0,
        "slot": "4",
        "type": "t_array(t_address)dyn_storage"
      },
      {
        "astId": 10693,
        "contract": "@aave/periphery-v3/contracts/rewards/RewardsController.sol:RewardsController",
        "label": "lastInitializedRevision",
        "offset": 0,
        "slot": "5",
        "type": "t_uint256"
      },
      {
        "astId": 10696,
        "contract": "@aave/periphery-v3/contracts/rewards/RewardsController.sol:RewardsController",
        "label": "initializing",
        "offset": 0,
        "slot": "6",
        "type": "t_bool"
      },
      {
        "astId": 10766,
        "contract": "@aave/periphery-v3/contracts/rewards/RewardsController.sol:RewardsController",
        "label": "______gap",
        "offset": 0,
        "slot": "7",
        "type": "t_array(t_uint256)50_storage"
      },
      {
        "astId": 35510,
        "contract": "@aave/periphery-v3/contracts/rewards/RewardsController.sol:RewardsController",
        "label": "_authorizedClaimers",
        "offset": 0,
        "slot": "57",
        "type": "t_mapping(t_address,t_address)"
      },
      {
        "astId": 35515,
        "contract": "@aave/periphery-v3/contracts/rewards/RewardsController.sol:RewardsController",
        "label": "_transferStrategy",
        "offset": 0,
        "slot": "58",
        "type": "t_mapping(t_address,t_contract(ITransferStrategyBase)38554)"
      },
      {
        "astId": 35520,
        "contract": "@aave/periphery-v3/contracts/rewards/RewardsController.sol:RewardsController",
        "label": "_rewardOracle",
        "offset": 0,
        "slot": "59",
        "type": "t_mapping(t_address,t_contract(IEACAggregatorProxy)34751)"
      }
    ],
    "types": {
      "t_address": {
        "encoding": "inplace",
        "label": "address",
        "numberOfBytes": "20"
      },
      "t_array(t_address)dyn_storage": {
        "base": "t_address",
        "encoding": "dynamic_array",
        "label": "address[]",
        "numberOfBytes": "32"
      },
      "t_array(t_uint256)50_storage": {
        "base": "t_uint256",
        "encoding": "inplace",
        "label": "uint256[50]",
        "numberOfBytes": "1600"
      },
      "t_bool": {
        "encoding": "inplace",
        "label": "bool",
        "numberOfBytes": "1"
      },
      "t_contract(IEACAggregatorProxy)34751": {
        "encoding": "inplace",
        "label": "contract IEACAggregatorProxy",
        "numberOfBytes": "20"
      },
      "t_contract(ITransferStrategyBase)38554": {
        "encoding": "inplace",
        "label": "contract ITransferStrategyBase",
        "numberOfBytes": "20"
      },
      "t_mapping(t_address,t_address)": {
        "encoding": "mapping",
        "key": "t_address",
        "label": "mapping(address => address)",
        "numberOfBytes": "32",
        "value": "t_address"
      },
      "t_mapping(t_address,t_bool)": {
        "encoding": "mapping",
        "key": "t_address",
        "label": "mapping(address => bool)",
        "numberOfBytes": "32",
        "value": "t_bool"
      },
      "t_mapping(t_address,t_contract(IEACAggregatorProxy)34751)": {
        "encoding": "mapping",
        "key": "t_address",
        "label": "mapping(address => contract IEACAggregatorProxy)",
        "numberOfBytes": "32",
        "value": "t_contract(IEACAggregatorProxy)34751"
      },
      "t_mapping(t_address,t_contract(ITransferStrategyBase)38554)": {
        "encoding": "mapping",
        "key": "t_address",
        "label": "mapping(address => contract ITransferStrategyBase)",
        "numberOfBytes": "32",
        "value": "t_contract(ITransferStrategyBase)38554"
      },
      "t_mapping(t_address,t_struct(AssetData)38617_storage)": {
        "encoding": "mapping",
        "key": "t_address",
        "label": "mapping(address => struct RewardsDataTypes.AssetData)",
        "numberOfBytes": "32",
        "value": "t_struct(AssetData)38617_storage"
      },
      "t_mapping(t_address,t_struct(RewardData)38603_storage)": {
        "encoding": "mapping",
        "key": "t_address",
        "label": "mapping(address => struct RewardsDataTypes.RewardData)",
        "numberOfBytes": "32",
        "value": "t_struct(RewardData)38603_storage"
      },
      "t_mapping(t_address,t_struct(UserData)38589_storage)": {
        "encoding": "mapping",
        "key": "t_address",
        "label": "mapping(address => struct RewardsDataTypes.UserData)",
        "numberOfBytes": "32",
        "value": "t_struct(UserData)38589_storage"
      },
      "t_mapping(t_uint128,t_address)": {
        "encoding": "mapping",
        "key": "t_uint128",
        "label": "mapping(uint128 => address)",
        "numberOfBytes": "32",
        "value": "t_address"
      },
      "t_struct(AssetData)38617_storage": {
        "encoding": "inplace",
        "label": "struct RewardsDataTypes.AssetData",
        "members": [
          {
            "astId": 38608,
            "contract": "@aave/periphery-v3/contracts/rewards/RewardsController.sol:RewardsController",
            "label": "rewards",
            "offset": 0,
            "slot": "0",
            "type": "t_mapping(t_address,t_struct(RewardData)38603_storage)"
          },
          {
            "astId": 38612,
            "contract": "@aave/periphery-v3/contracts/rewards/RewardsController.sol:RewardsController",
            "label": "availableRewards",
            "offset": 0,
            "slot": "1",
            "type": "t_mapping(t_uint128,t_address)"
          },
          {
            "astId": 38614,
            "contract": "@aave/periphery-v3/contracts/rewards/RewardsController.sol:RewardsController",
            "label": "availableRewardsCount",
            "offset": 0,
            "slot": "2",
            "type": "t_uint128"
          },
          {
            "astId": 38616,
            "contract": "@aave/periphery-v3/contracts/rewards/RewardsController.sol:RewardsController",
            "label": "decimals",
            "offset": 16,
            "slot": "2",
            "type": "t_uint8"
          }
        ],
        "numberOfBytes": "96"
      },
      "t_struct(RewardData)38603_storage": {
        "encoding": "inplace",
        "label": "struct RewardsDataTypes.RewardData",
        "members": [
          {
            "astId": 38591,
            "contract": "@aave/periphery-v3/contracts/rewards/RewardsController.sol:RewardsController",
            "label": "index",
            "offset": 0,
            "slot": "0",
            "type": "t_uint104"
          },
          {
            "astId": 38593,
            "contract": "@aave/periphery-v3/contracts/rewards/RewardsController.sol:RewardsController",
            "label": "emissionPerSecond",
            "offset": 13,
            "slot": "0",
            "type": "t_uint88"
          },
          {
            "astId": 38595,
            "contract": "@aave/periphery-v3/contracts/rewards/RewardsController.sol:RewardsController",
            "label": "lastUpdateTimestamp",
            "offset": 24,
            "slot": "0",
            "type": "t_uint32"
          },
          {
            "astId": 38597,
            "contract": "@aave/periphery-v3/contracts/rewards/RewardsController.sol:RewardsController",
            "label": "distributionEnd",
            "offset": 28,
            "slot": "0",
            "type": "t_uint32"
          },
          {
            "astId": 38602,
            "contract": "@aave/periphery-v3/contracts/rewards/RewardsController.sol:RewardsController",
            "label": "usersData",
            "offset": 0,
            "slot": "1",
            "type": "t_mapping(t_address,t_struct(UserData)38589_storage)"
          }
        ],
        "numberOfBytes": "64"
      },
      "t_struct(UserData)38589_storage": {
        "encoding": "inplace",
        "label": "struct RewardsDataTypes.UserData",
        "members": [
          {
            "astId": 38586,
            "contract": "@aave/periphery-v3/contracts/rewards/RewardsController.sol:RewardsController",
            "label": "index",
            "offset": 0,
            "slot": "0",
            "type": "t_uint104"
          },
          {
            "astId": 38588,
            "contract": "@aave/periphery-v3/contracts/rewards/RewardsController.sol:RewardsController",
            "label": "accrued",
            "offset": 13,
            "slot": "0",
            "type": "t_uint128"
          }
        ],
        "numberOfBytes": "32"
      },
      "t_uint104": {
        "encoding": "inplace",
        "label": "uint104",
        "numberOfBytes": "13"
      },
      "t_uint128": {
        "encoding": "inplace",
        "label": "uint128",
        "numberOfBytes": "16"
      },
      "t_uint256": {
        "encoding": "inplace",
        "label": "uint256",
        "numberOfBytes": "32"
      },
      "t_uint32": {
        "encoding": "inplace",
        "label": "uint32",
        "numberOfBytes": "4"
      },
      "t_uint8": {
        "encoding": "inplace",
        "label": "uint8",
        "numberOfBytes": "1"
      },
      "t_uint88": {
        "encoding": "inplace",
        "label": "uint88",
        "numberOfBytes": "11"
      }
    }
  }
}