{
  "address": "0xe17bBc68bFcffdDCD92D24C3cEA33FACB3909Ec8",
  "abi": [
    {
      "inputs": [
        {
          "internalType": "contract IPoolAddressesProvider",
          "name": "addressesProvider",
          "type": "address"
        }
      ],
      "stateMutability": "nonpayable",
      "type": "constructor"
    },
    {
      "inputs": [],
      "name": "ADDRESSES_PROVIDER",
      "outputs": [
        {
          "internalType": "contract IPoolAddressesProvider",
          "name": "",
          "type": "address"
        }
      ],
      "stateMutability": "view",
      "type": "function"
    },
    {
      "inputs": [
        {
          "internalType": "address",
          "name": "asset",
          "type": "address"
        }
      ],
      "name": "getATokenTotalSupply",
      "outputs": [
        {
          "internalType": "uint256",
          "name": "",
          "type": "uint256"
        }
      ],
      "stateMutability": "view",
      "type": "function"
    },
    {
      "inputs": [],
      "name": "getAllATokens",
      "outputs": [
        {
          "components": [
            {
              "internalType": "string",
              "name": "symbol",
              "type": "string"
            },
            {
              "internalType": "address",
              "name": "tokenAddress",
              "type": "address"
            }
          ],
          "internalType": "struct AaveProtocolDataProvider.TokenData[]",
          "name": "",
          "type": "tuple[]"
        }
      ],
      "stateMutability": "view",
      "type": "function"
    },
    {
      "inputs": [],
      "name": "getAllReservesTokens",
      "outputs": [
        {
          "components": [
            {
              "internalType": "string",
              "name": "symbol",
              "type": "string"
            },
            {
              "internalType": "address",
              "name": "tokenAddress",
              "type": "address"
            }
          ],
          "internalType": "struct AaveProtocolDataProvider.TokenData[]",
          "name": "",
          "type": "tuple[]"
        }
      ],
      "stateMutability": "view",
      "type": "function"
    },
    {
      "inputs": [
        {
          "internalType": "address",
          "name": "asset",
          "type": "address"
        }
      ],
      "name": "getDebtCeiling",
      "outputs": [
        {
          "internalType": "uint256",
          "name": "",
          "type": "uint256"
        }
      ],
      "stateMutability": "view",
      "type": "function"
    },
    {
      "inputs": [],
      "name": "getDebtCeilingDecimals",
      "outputs": [
        {
          "internalType": "uint256",
          "name": "",
          "type": "uint256"
        }
      ],
      "stateMutability": "pure",
      "type": "function"
    },
    {
      "inputs": [
        {
          "internalType": "address",
          "name": "asset",
          "type": "address"
        }
      ],
      "name": "getInterestRateStrategyAddress",
      "outputs": [
        {
          "internalType": "address",
          "name": "irStrategyAddress",
          "type": "address"
        }
      ],
      "stateMutability": "view",
      "type": "function"
    },
    {
      "inputs": [
        {
          "internalType": "address",
          "name": "asset",
          "type": "address"
        }
      ],
      "name": "getLiquidationProtocolFee",
      "outputs": [
        {
          "internalType": "uint256",
          "name": "",
          "type": "uint256"
        }
      ],
      "stateMutability": "view",
      "type": "function"
    },
    {
      "inputs": [
        {
          "internalType": "address",
          "name": "asset",
          "type": "address"
        }
      ],
      "name": "getPaused",
      "outputs": [
        {
          "internalType": "bool",
          "name": "isPaused",
          "type": "bool"
        }
      ],
      "stateMutability": "view",
      "type": "function"
    },
    {
      "inputs": [
        {
          "internalType": "address",
          "name": "asset",
          "type": "address"
        }
      ],
      "name": "getReserveCaps",
      "outputs": [
        {
          "internalType": "uint256",
          "name": "borrowCap",
          "type": "uint256"
        },
        {
          "internalType": "uint256",
          "name": "supplyCap",
          "type": "uint256"
        }
      ],
      "stateMutability": "view",
      "type": "function"
    },
    {
      "inputs": [
        {
          "internalType": "address",
          "name": "asset",
          "type": "address"
        }
      ],
      "name": "getReserveConfigurationData",
      "outputs": [
        {
          "internalType": "uint256",
          "name": "decimals",
          "type": "uint256"
        },
        {
          "internalType": "uint256",
          "name": "ltv",
          "type": "uint256"
        },
        {
          "internalType": "uint256",
          "name": "liquidationThreshold",
          "type": "uint256"
        },
        {
          "internalType": "uint256",
          "name": "liquidationBonus",
          "type": "uint256"
        },
        {
          "internalType": "uint256",
          "name": "reserveFactor",
          "type": "uint256"
        },
        {
          "internalType": "bool",
          "name": "usageAsCollateralEnabled",
          "type": "bool"
        },
        {
          "internalType": "bool",
          "name": "borrowingEnabled",
          "type": "bool"
        },
        {
          "internalType": "bool",
          "name": "stableBorrowRateEnabled",
          "type": "bool"
        },
        {
          "internalType": "bool",
          "name": "isActive",
          "type": "bool"
        },
        {
          "internalType": "bool",
          "name": "isFrozen",
          "type": "bool"
        }
      ],
      "stateMutability": "view",
      "type": "function"
    },
    {
      "inputs": [
        {
          "internalType": "address",
          "name": "asset",
          "type": "address"
        }
      ],
      "name": "getReserveData",
      "outputs": [
        {
          "internalType": "uint256",
          "name": "unbacked",
          "type": "uint256"
        },
        {
          "internalType": "uint256",
          "name": "accruedToTreasuryScaled",
          "type": "uint256"
        },
        {
          "internalType": "uint256",
          "name": "totalAToken",
          "type": "uint256"
        },
        {
          "internalType": "uint256",
          "name": "totalStableDebt",
          "type": "uint256"
        },
        {
          "internalType": "uint256",
          "name": "totalVariableDebt",
          "type": "uint256"
        },
        {
          "internalType": "uint256",
          "name": "liquidityRate",
          "type": "uint256"
        },
        {
          "internalType": "uint256",
          "name": "variableBorrowRate",
          "type": "uint256"
        },
        {
          "internalType": "uint256",
          "name": "stableBorrowRate",
          "type": "uint256"
        },
        {
          "internalType": "uint256",
          "name": "averageStableBorrowRate",
          "type": "uint256"
        },
        {
          "internalType": "uint256",
          "name": "liquidityIndex",
          "type": "uint256"
        },
        {
          "internalType": "uint256",
          "name": "variableBorrowIndex",
          "type": "uint256"
        },
        {
          "internalType": "uint40",
          "name": "lastUpdateTimestamp",
          "type": "uint40"
        }
      ],
      "stateMutability": "view",
      "type": "function"
    },
    {
      "inputs": [
        {
          "internalType": "address",
          "name": "asset",
          "type": "address"
        }
      ],
      "name": "getReserveEModeCategory",
      "outputs": [
        {
          "internalType": "uint256",
          "name": "",
          "type": "uint256"
        }
      ],
      "stateMutability": "view",
      "type": "function"
    },
    {
      "inputs": [
        {
          "internalType": "address",
          "name": "asset",
          "type": "address"
        }
      ],
      "name": "getReserveTokensAddresses",
      "outputs": [
        {
          "internalType": "address",
          "name": "aTokenAddress",
          "type": "address"
        },
        {
          "internalType": "address",
          "name": "stableDebtTokenAddress",
          "type": "address"
        },
        {
          "internalType": "address",
          "name": "variableDebtTokenAddress",
          "type": "address"
        }
      ],
      "stateMutability": "view",
      "type": "function"
    },
    {
      "inputs": [
        {
          "internalType": "address",
          "name": "asset",
          "type": "address"
        }
      ],
      "name": "getSiloedBorrowing",
      "outputs": [
        {
          "internalType": "bool",
          "name": "",
          "type": "bool"
        }
      ],
      "stateMutability": "view",
      "type": "function"
    },
    {
      "inputs": [
        {
          "internalType": "address",
          "name": "asset",
          "type": "address"
        }
      ],
      "name": "getTotalDebt",
      "outputs": [
        {
          "internalType": "uint256",
          "name": "",
          "type": "uint256"
        }
      ],
      "stateMutability": "view",
      "type": "function"
    },
    {
      "inputs": [
        {
          "internalType": "address",
          "name": "asset",
          "type": "address"
        }
      ],
      "name": "getUnbackedMintCap",
      "outputs": [
        {
          "internalType": "uint256",
          "name": "",
          "type": "uint256"
        }
      ],
      "stateMutability": "view",
      "type": "function"
    },
    {
      "inputs": [
        {
          "internalType": "address",
          "name": "asset",
          "type": "address"
        },
        {
          "internalType": "address",
          "name": "user",
          "type": "address"
        }
      ],
      "name": "getUserReserveData",
      "outputs": [
        {
          "internalType": "uint256",
          "name": "currentATokenBalance",
          "type": "uint256"
        },
        {
          "internalType": "uint256",
          "name": "currentStableDebt",
          "type": "uint256"
        },
        {
          "internalType": "uint256",
          "name": "currentVariableDebt",
          "type": "uint256"
        },
        {
          "internalType": "uint256",
          "name": "principalStableDebt",
          "type": "uint256"
        },
        {
          "internalType": "uint256",
          "name": "scaledVariableDebt",
          "type": "uint256"
        },
        {
          "internalType": "uint256",
          "name": "stableBorrowRate",
          "type": "uint256"
        },
        {
          "internalType": "uint256",
          "name": "liquidityRate",
          "type": "uint256"
        },
        {
          "internalType": "uint40",
          "name": "stableRateLastUpdated",
          "type": "uint40"
        },
        {
          "internalType": "bool",
          "name": "usageAsCollateralEnabled",
          "type": "bool"
        }
      ],
      "stateMutability": "view",
      "type": "function"
    }
  ],
  "transactionHash": "0x65af2586ea411715511769912133acaf250131cbc16fb8739d87b9d9c2a1c8ba",
  "args": [
    "0xc9eAa8FeB724efA7a6eEf602347457b292C44f16"
  ],
  "numDeployments": 1,
  "solcInputHash": "816200c80748247f1e8b4ace73f060ab",
  "bytecode": "0x60a06040523480156200001157600080fd5b5060405162002fa438038062002fa4833981016040819052620000349162000046565b6001600160a01b031660805262000078565b6000602082840312156200005957600080fd5b81516001600160a01b03811681146200007157600080fd5b9392505050565b608051612e996200010b600039600081816101400152818161042a0152818161056d0152818161069301528181610c42015281816110230152818161115d0152818161129a015281816114350152818161157c015281816117950152818161193001528181611a6301528181611b960152818161200c01528181612185015281816122cb01526126110152612e996000f3fe608060405234801561001057600080fd5b50600436106101365760003560e01c806351460e25116100b2578063b316ff8911610081578063d2493b6c11610066578063d2493b6c146103c0578063f561ae411461040a578063fcf40a621461041257600080fd5b8063b316ff8914610388578063b55d99041461039d57600080fd5b806351460e25146103485780636744362a1461035b57806369b169e11461036e5780637ba1ae361461037557600080fd5b80633c798109116101095780633e150141116100ee5780633e150141146102a657806346fbe5581461030d5780634d44ac4f1461033557600080fd5b80633c798109146102805780633cb8a6221461029357600080fd5b80630542975c1461013b578063163a0f201461018c57806328dd2d01146101ad57806335ea6a751461020d575b600080fd5b6101627f000000000000000000000000000000000000000000000000000000000000000081565b60405173ffffffffffffffffffffffffffffffffffffffff90911681526020015b60405180910390f35b61019f61019a3660046127f2565b610425565b604051908152602001610183565b6101c06101bb36600461280f565b61055c565b60408051998a5260208a0198909852968801959095526060870193909352608086019190915260a085015260c084015264ffffffffff1660e0830152151561010082015261012001610183565b61022061021b3660046127f2565b610c2c565b604080519c8d5260208d019b909b52998b019890985260608a0196909652608089019490945260a088019290925260c087015260e086015261010085015261012084015261014083015264ffffffffff1661016082015261018001610183565b61019f61028e3660046127f2565b61101c565b61019f6102a13660046127f2565b611156565b6102b96102b43660046127f2565b611287565b604080519a8b5260208b01999099529789019690965260608801949094526080870192909252151560a0860152151560c0850152151560e08401521515610100830152151561012082015261014001610183565b61032061031b3660046127f2565b61142d565b60408051928352602083019190915201610183565b61019f6103433660046127f2565b611577565b61019f6103563660046127f2565b611790565b6101626103693660046127f2565b61192b565b600261019f565b61019f6103833660046127f2565b611a5c565b610390611b90565b60405161018391906128c2565b6103b06103ab3660046127f2565b612005565b6040519015158152602001610183565b6103d36103ce3660046127f2565b61217d565b6040805173ffffffffffffffffffffffffffffffffffffffff94851681529284166020840152921691810191909152606001610183565b6103906122c5565b6103b06104203660046127f2565b61260a565b6000807f000000000000000000000000000000000000000000000000000000000000000073ffffffffffffffffffffffffffffffffffffffff1663026b1d5f6040518163ffffffff1660e01b8152600401602060405180830381865afa158015610493573d6000803e3d6000fd5b505050506040513d601f19601f820116820180604052508101906104b7919061297c565b6040517fc44b11f700000000000000000000000000000000000000000000000000000000815273ffffffffffffffffffffffffffffffffffffffff8581166004830152919091169063c44b11f790602401602060405180830381865afa158015610525573d6000803e3d6000fd5b505050506040513d601f19601f820116820180604052508101906105499190612a83565b805190915060a81c60ff165b9392505050565b6000806000806000806000806000807f000000000000000000000000000000000000000000000000000000000000000073ffffffffffffffffffffffffffffffffffffffff1663026b1d5f6040518163ffffffff1660e01b8152600401602060405180830381865afa1580156105d6573d6000803e3d6000fd5b505050506040513d601f19601f820116820180604052508101906105fa919061297c565b6040517f35ea6a7500000000000000000000000000000000000000000000000000000000815273ffffffffffffffffffffffffffffffffffffffff8e8116600483015291909116906335ea6a75906024016101e060405180830381865afa158015610669573d6000803e3d6000fd5b505050506040513d601f19601f8201168201806040525081019061068d9190612ae6565b905060007f000000000000000000000000000000000000000000000000000000000000000073ffffffffffffffffffffffffffffffffffffffff1663026b1d5f6040518163ffffffff1660e01b8152600401602060405180830381865afa1580156106fc573d6000803e3d6000fd5b505050506040513d601f19601f82011682018060405250810190610720919061297c565b6040517f4417a58300000000000000000000000000000000000000000000000000000000815273ffffffffffffffffffffffffffffffffffffffff8e811660048301529190911690634417a58390602401602060405180830381865afa15801561078e573d6000803e3d6000fd5b505050506040513d601f19601f820116820180604052508101906107b29190612a83565b6101008301516040517f70a0823100000000000000000000000000000000000000000000000000000000815273ffffffffffffffffffffffffffffffffffffffff8f811660048301529293509116906370a0823190602401602060405180830381865afa158015610827573d6000803e3d6000fd5b505050506040513d601f19601f8201168201806040525081019061084b9190612c09565b6101408301516040517f70a0823100000000000000000000000000000000000000000000000000000000815273ffffffffffffffffffffffffffffffffffffffff8f81166004830152929d509116906370a0823190602401602060405180830381865afa1580156108c0573d6000803e3d6000fd5b505050506040513d601f19601f820116820180604052508101906108e49190612c09565b6101208301516040517f70a0823100000000000000000000000000000000000000000000000000000000815273ffffffffffffffffffffffffffffffffffffffff8f81166004830152929b509116906370a0823190602401602060405180830381865afa158015610959573d6000803e3d6000fd5b505050506040513d601f19601f8201168201806040525081019061097d9190612c09565b6101208301516040517fc634dfaa00000000000000000000000000000000000000000000000000000000815273ffffffffffffffffffffffffffffffffffffffff8f81166004830152929c5091169063c634dfaa90602401602060405180830381865afa1580156109f2573d6000803e3d6000fd5b505050506040513d601f19601f82011682018060405250810190610a169190612c09565b6101408301516040517f1da24f3e00000000000000000000000000000000000000000000000000000000815273ffffffffffffffffffffffffffffffffffffffff8f81166004830152929a50911690631da24f3e90602401602060405180830381865afa158015610a8b573d6000803e3d6000fd5b505050506040513d601f19601f82011682018060405250810190610aaf9190612c09565b965081604001516fffffffffffffffffffffffffffffffff16945081610120015173ffffffffffffffffffffffffffffffffffffffff1663e78c9b3b8d6040518263ffffffff1660e01b8152600401610b24919073ffffffffffffffffffffffffffffffffffffffff91909116815260200190565b602060405180830381865afa158015610b41573d6000803e3d6000fd5b505050506040513d601f19601f82011682018060405250810190610b659190612c09565b6101208301516040517f79ce6b8c00000000000000000000000000000000000000000000000000000000815273ffffffffffffffffffffffffffffffffffffffff8f811660048301529298509116906379ce6b8c90602401602060405180830381865afa158015610bda573d6000803e3d6000fd5b505050506040513d601f19601f82011682018060405250810190610bfe9190612c22565b9350610c1b8260e0015161ffff168261274090919063ffffffff16565b925050509295985092959850929598565b60008060008060008060008060008060008060007f000000000000000000000000000000000000000000000000000000000000000073ffffffffffffffffffffffffffffffffffffffff1663026b1d5f6040518163ffffffff1660e01b8152600401602060405180830381865afa158015610cab573d6000803e3d6000fd5b505050506040513d601f19601f82011682018060405250810190610ccf919061297c565b73ffffffffffffffffffffffffffffffffffffffff166335ea6a758f6040518263ffffffff1660e01b8152600401610d23919073ffffffffffffffffffffffffffffffffffffffff91909116815260200190565b6101e060405180830381865afa158015610d41573d6000803e3d6000fd5b505050506040513d601f19601f82011682018060405250810190610d659190612ae6565b9050806101a0015181610180015182610100015173ffffffffffffffffffffffffffffffffffffffff166318160ddd6040518163ffffffff1660e01b8152600401602060405180830381865afa158015610dc3573d6000803e3d6000fd5b505050506040513d601f19601f82011682018060405250810190610de79190612c09565b83610120015173ffffffffffffffffffffffffffffffffffffffff166318160ddd6040518163ffffffff1660e01b8152600401602060405180830381865afa158015610e37573d6000803e3d6000fd5b505050506040513d601f19601f82011682018060405250810190610e5b9190612c09565b84610140015173ffffffffffffffffffffffffffffffffffffffff166318160ddd6040518163ffffffff1660e01b8152600401602060405180830381865afa158015610eab573d6000803e3d6000fd5b505050506040513d601f19601f82011682018060405250810190610ecf9190612c09565b856040015186608001518760a0015188610120015173ffffffffffffffffffffffffffffffffffffffff166390f6fcf26040518163ffffffff1660e01b8152600401602060405180830381865afa158015610f2e573d6000803e3d6000fd5b505050506040513d601f19601f82011682018060405250810190610f529190612c09565b89602001518a606001518b60c001518b6fffffffffffffffffffffffffffffffff169b508a6fffffffffffffffffffffffffffffffff169a50866fffffffffffffffffffffffffffffffff169650856fffffffffffffffffffffffffffffffff169550846fffffffffffffffffffffffffffffffff169450826fffffffffffffffffffffffffffffffff169250816fffffffffffffffffffffffffffffffff1691509c509c509c509c509c509c509c509c509c509c509c509c505091939597999b5091939597999b565b60006111507f000000000000000000000000000000000000000000000000000000000000000073ffffffffffffffffffffffffffffffffffffffff1663026b1d5f6040518163ffffffff1660e01b8152600401602060405180830381865afa15801561108c573d6000803e3d6000fd5b505050506040513d601f19601f820116820180604052508101906110b0919061297c565b6040517fc44b11f700000000000000000000000000000000000000000000000000000000815273ffffffffffffffffffffffffffffffffffffffff8581166004830152919091169063c44b11f790602401602060405180830381865afa15801561111e573d6000803e3d6000fd5b505050506040513d601f19601f820116820180604052508101906111429190612a83565b5160d41c64ffffffffff1690565b92915050565b60006111507f000000000000000000000000000000000000000000000000000000000000000073ffffffffffffffffffffffffffffffffffffffff1663026b1d5f6040518163ffffffff1660e01b8152600401602060405180830381865afa1580156111c6573d6000803e3d6000fd5b505050506040513d601f19601f820116820180604052508101906111ea919061297c565b6040517fc44b11f700000000000000000000000000000000000000000000000000000000815273ffffffffffffffffffffffffffffffffffffffff8581166004830152919091169063c44b11f790602401602060405180830381865afa158015611258573d6000803e3d6000fd5b505050506040513d601f19601f8201168201806040525081019061127c9190612a83565b5160981c61ffff1690565b60008060008060008060008060008060007f000000000000000000000000000000000000000000000000000000000000000073ffffffffffffffffffffffffffffffffffffffff1663026b1d5f6040518163ffffffff1660e01b8152600401602060405180830381865afa158015611303573d6000803e3d6000fd5b505050506040513d601f19601f82011682018060405250810190611327919061297c565b6040517fc44b11f700000000000000000000000000000000000000000000000000000000815273ffffffffffffffffffffffffffffffffffffffff8e81166004830152919091169063c44b11f790602401602060405180830381865afa158015611395573d6000803e3d6000fd5b505050506040513d601f19601f820116820180604052508101906113b99190612a83565b5160ff603082901c169d61ffff8083169e50601083901c81169d50602083901c81169c50604083901c169a508c151599506704000000000000008216151598506708000000000000008216151597506701000000000000008216151596506702000000000000009091161515945092505050565b60008061156d7f000000000000000000000000000000000000000000000000000000000000000073ffffffffffffffffffffffffffffffffffffffff1663026b1d5f6040518163ffffffff1660e01b8152600401602060405180830381865afa15801561149e573d6000803e3d6000fd5b505050506040513d601f19601f820116820180604052508101906114c2919061297c565b6040517fc44b11f700000000000000000000000000000000000000000000000000000000815273ffffffffffffffffffffffffffffffffffffffff8681166004830152919091169063c44b11f790602401602060405180830381865afa158015611530573d6000803e3d6000fd5b505050506040513d601f19601f820116820180604052508101906115549190612a83565b51640fffffffff605082901c81169260749290921c1690565b9094909350915050565b6000807f000000000000000000000000000000000000000000000000000000000000000073ffffffffffffffffffffffffffffffffffffffff1663026b1d5f6040518163ffffffff1660e01b8152600401602060405180830381865afa1580156115e5573d6000803e3d6000fd5b505050506040513d601f19601f82011682018060405250810190611609919061297c565b6040517f35ea6a7500000000000000000000000000000000000000000000000000000000815273ffffffffffffffffffffffffffffffffffffffff858116600483015291909116906335ea6a75906024016101e060405180830381865afa158015611678573d6000803e3d6000fd5b505050506040513d601f19601f8201168201806040525081019061169c9190612ae6565b905080610140015173ffffffffffffffffffffffffffffffffffffffff166318160ddd6040518163ffffffff1660e01b8152600401602060405180830381865afa1580156116ee573d6000803e3d6000fd5b505050506040513d601f19601f820116820180604052508101906117129190612c09565b81610120015173ffffffffffffffffffffffffffffffffffffffff166318160ddd6040518163ffffffff1660e01b8152600401602060405180830381865afa158015611762573d6000803e3d6000fd5b505050506040513d601f19601f820116820180604052508101906117869190612c09565b6105559190612c6c565b6000807f000000000000000000000000000000000000000000000000000000000000000073ffffffffffffffffffffffffffffffffffffffff1663026b1d5f6040518163ffffffff1660e01b8152600401602060405180830381865afa1580156117fe573d6000803e3d6000fd5b505050506040513d601f19601f82011682018060405250810190611822919061297c565b6040517f35ea6a7500000000000000000000000000000000000000000000000000000000815273ffffffffffffffffffffffffffffffffffffffff858116600483015291909116906335ea6a75906024016101e060405180830381865afa158015611891573d6000803e3d6000fd5b505050506040513d601f19601f820116820180604052508101906118b59190612ae6565b905080610100015173ffffffffffffffffffffffffffffffffffffffff166318160ddd6040518163ffffffff1660e01b8152600401602060405180830381865afa158015611907573d6000803e3d6000fd5b505050506040513d601f19601f820116820180604052508101906105559190612c09565b6000807f000000000000000000000000000000000000000000000000000000000000000073ffffffffffffffffffffffffffffffffffffffff1663026b1d5f6040518163ffffffff1660e01b8152600401602060405180830381865afa158015611999573d6000803e3d6000fd5b505050506040513d601f19601f820116820180604052508101906119bd919061297c565b6040517f35ea6a7500000000000000000000000000000000000000000000000000000000815273ffffffffffffffffffffffffffffffffffffffff858116600483015291909116906335ea6a75906024016101e060405180830381865afa158015611a2c573d6000803e3d6000fd5b505050506040513d601f19601f82011682018060405250810190611a509190612ae6565b61016001519392505050565b60006111507f000000000000000000000000000000000000000000000000000000000000000073ffffffffffffffffffffffffffffffffffffffff1663026b1d5f6040518163ffffffff1660e01b8152600401602060405180830381865afa158015611acc573d6000803e3d6000fd5b505050506040513d601f19601f82011682018060405250810190611af0919061297c565b6040517fc44b11f700000000000000000000000000000000000000000000000000000000815273ffffffffffffffffffffffffffffffffffffffff8581166004830152919091169063c44b11f790602401602060405180830381865afa158015611b5e573d6000803e3d6000fd5b505050506040513d601f19601f82011682018060405250810190611b829190612a83565b5160b01c640fffffffff1690565b606060007f000000000000000000000000000000000000000000000000000000000000000073ffffffffffffffffffffffffffffffffffffffff1663026b1d5f6040518163ffffffff1660e01b8152600401602060405180830381865afa158015611bff573d6000803e3d6000fd5b505050506040513d601f19601f82011682018060405250810190611c23919061297c565b905060008173ffffffffffffffffffffffffffffffffffffffff1663d1946dbc6040518163ffffffff1660e01b8152600401600060405180830381865afa158015611c72573d6000803e3d6000fd5b505050506040513d6000823e601f3d9081017fffffffffffffffffffffffffffffffffffffffffffffffffffffffffffffffe0168201604052611cb89190810190612c84565b90506000815167ffffffffffffffff811115611cd657611cd6612999565b604051908082528060200260200182016040528015611d1c57816020015b604080518082019091526060815260006020820152815260200190600190039081611cf45790505b50905060005b8251811015611ffd57739f8f72aa9304c8b593d555f12ef6589cc3a579a273ffffffffffffffffffffffffffffffffffffffff16838281518110611d6857611d68612d36565b602002602001015173ffffffffffffffffffffffffffffffffffffffff161415611e275760405180604001604052806040518060400160405280600381526020017f4d4b5200000000000000000000000000000000000000000000000000000000008152508152602001848381518110611de457611de4612d36565b602002602001015173ffffffffffffffffffffffffffffffffffffffff16815250828281518110611e1757611e17612d36565b6020026020010181905250611feb565b73eeeeeeeeeeeeeeeeeeeeeeeeeeeeeeeeeeeeeeee73ffffffffffffffffffffffffffffffffffffffff16838281518110611e6457611e64612d36565b602002602001015173ffffffffffffffffffffffffffffffffffffffff161415611ee05760405180604001604052806040518060400160405280600381526020017f45544800000000000000000000000000000000000000000000000000000000008152508152602001848381518110611de457611de4612d36565b6040518060400160405280848381518110611efd57611efd612d36565b602002602001015173ffffffffffffffffffffffffffffffffffffffff166395d89b416040518163ffffffff1660e01b8152600401600060405180830381865afa158015611f4f573d6000803e3d6000fd5b505050506040513d6000823e601f3d9081017fffffffffffffffffffffffffffffffffffffffffffffffffffffffffffffffe0168201604052611f959190810190612d65565b8152602001848381518110611fac57611fac612d36565b602002602001015173ffffffffffffffffffffffffffffffffffffffff16815250828281518110611fdf57611fdf612d36565b60200260200101819052505b80611ff581612e17565b915050611d22565b509392505050565b60006121737f000000000000000000000000000000000000000000000000000000000000000073ffffffffffffffffffffffffffffffffffffffff1663026b1d5f6040518163ffffffff1660e01b8152600401602060405180830381865afa158015612075573d6000803e3d6000fd5b505050506040513d601f19601f82011682018060405250810190612099919061297c565b6040517fc44b11f700000000000000000000000000000000000000000000000000000000815273ffffffffffffffffffffffffffffffffffffffff8581166004830152919091169063c44b11f790602401602060405180830381865afa158015612107573d6000803e3d6000fd5b505050506040513d601f19601f8201168201806040525081019061212b9190612a83565b51670100000000000000811615159167020000000000000082161515916704000000000000008116151591670800000000000000821615159167100000000000000016151590565b9695505050505050565b6000806000807f000000000000000000000000000000000000000000000000000000000000000073ffffffffffffffffffffffffffffffffffffffff1663026b1d5f6040518163ffffffff1660e01b8152600401602060405180830381865afa1580156121ee573d6000803e3d6000fd5b505050506040513d601f19601f82011682018060405250810190612212919061297c565b6040517f35ea6a7500000000000000000000000000000000000000000000000000000000815273ffffffffffffffffffffffffffffffffffffffff878116600483015291909116906335ea6a75906024016101e060405180830381865afa158015612281573d6000803e3d6000fd5b505050506040513d601f19601f820116820180604052508101906122a59190612ae6565b610100810151610120820151610140909201519097919650945092505050565b606060007f000000000000000000000000000000000000000000000000000000000000000073ffffffffffffffffffffffffffffffffffffffff1663026b1d5f6040518163ffffffff1660e01b8152600401602060405180830381865afa158015612334573d6000803e3d6000fd5b505050506040513d601f19601f82011682018060405250810190612358919061297c565b905060008173ffffffffffffffffffffffffffffffffffffffff1663d1946dbc6040518163ffffffff1660e01b8152600401600060405180830381865afa1580156123a7573d6000803e3d6000fd5b505050506040513d6000823e601f3d9081017fffffffffffffffffffffffffffffffffffffffffffffffffffffffffffffffe01682016040526123ed9190810190612c84565b90506000815167ffffffffffffffff81111561240b5761240b612999565b60405190808252806020026020018201604052801561245157816020015b6040805180820190915260608152600060208201528152602001906001900390816124295790505b50905060005b8251811015611ffd5760008473ffffffffffffffffffffffffffffffffffffffff166335ea6a7585848151811061249057612490612d36565b60200260200101516040518263ffffffff1660e01b81526004016124d0919073ffffffffffffffffffffffffffffffffffffffff91909116815260200190565b6101e060405180830381865afa1580156124ee573d6000803e3d6000fd5b505050506040513d601f19601f820116820180604052508101906125129190612ae6565b9050604051806040016040528082610100015173ffffffffffffffffffffffffffffffffffffffff166395d89b416040518163ffffffff1660e01b8152600401600060405180830381865afa15801561256f573d6000803e3d6000fd5b505050506040513d6000823e601f3d9081017fffffffffffffffffffffffffffffffffffffffffffffffffffffffffffffffe01682016040526125b59190810190612d65565b815260200182610100015173ffffffffffffffffffffffffffffffffffffffff168152508383815181106125eb576125eb612d36565b602002602001018190525050808061260290612e17565b915050612457565b60006111507f000000000000000000000000000000000000000000000000000000000000000073ffffffffffffffffffffffffffffffffffffffff1663026b1d5f6040518163ffffffff1660e01b8152600401602060405180830381865afa15801561267a573d6000803e3d6000fd5b505050506040513d601f19601f8201168201806040525081019061269e919061297c565b6040517fc44b11f700000000000000000000000000000000000000000000000000000000815273ffffffffffffffffffffffffffffffffffffffff8581166004830152919091169063c44b11f790602401602060405180830381865afa15801561270c573d6000803e3d6000fd5b505050506040513d601f19601f820116820180604052508101906127309190612a83565b5167400000000000000016151590565b60408051808201909152600281527f37340000000000000000000000000000000000000000000000000000000000006020820152600090608083106127bb576040517f08c379a00000000000000000000000000000000000000000000000000000000081526004016127b29190612e50565b60405180910390fd5b50509051600191821b82011c16151590565b73ffffffffffffffffffffffffffffffffffffffff811681146127ef57600080fd5b50565b60006020828403121561280457600080fd5b8135610555816127cd565b6000806040838503121561282257600080fd5b823561282d816127cd565b9150602083013561283d816127cd565b809150509250929050565b60005b8381101561286357818101518382015260200161284b565b83811115612872576000848401525b50505050565b60008151808452612890816020860160208601612848565b601f017fffffffffffffffffffffffffffffffffffffffffffffffffffffffffffffffe0169290920160200192915050565b60006020808301818452808551808352604092508286019150828160051b87010184880160005b8381101561295e577fffffffffffffffffffffffffffffffffffffffffffffffffffffffffffffffc08984030185528151805187855261292b88860182612878565b9189015173ffffffffffffffffffffffffffffffffffffffff1694890194909452948701949250908601906001016128e9565b509098975050505050505050565b8051612977816127cd565b919050565b60006020828403121561298e57600080fd5b8151610555816127cd565b7f4e487b7100000000000000000000000000000000000000000000000000000000600052604160045260246000fd5b6040516101e0810167ffffffffffffffff811182821017156129ec576129ec612999565b60405290565b604051601f82017fffffffffffffffffffffffffffffffffffffffffffffffffffffffffffffffe016810167ffffffffffffffff81118282101715612a3957612a39612999565b604052919050565b600060208284031215612a5357600080fd5b6040516020810181811067ffffffffffffffff82111715612a7657612a76612999565b6040529151825250919050565b600060208284031215612a9557600080fd5b6105558383612a41565b80516fffffffffffffffffffffffffffffffff8116811461297757600080fd5b805164ffffffffff8116811461297757600080fd5b805161ffff8116811461297757600080fd5b60006101e08284031215612af957600080fd5b612b016129c8565b612b0b8484612a41565b8152612b1960208401612a9f565b6020820152612b2a60408401612a9f565b6040820152612b3b60608401612a9f565b6060820152612b4c60808401612a9f565b6080820152612b5d60a08401612a9f565b60a0820152612b6e60c08401612abf565b60c0820152612b7f60e08401612ad4565b60e0820152610100612b9281850161296c565b90820152610120612ba484820161296c565b90820152610140612bb684820161296c565b90820152610160612bc884820161296c565b90820152610180612bda848201612a9f565b908201526101a0612bec848201612a9f565b908201526101c0612bfe848201612a9f565b908201529392505050565b600060208284031215612c1b57600080fd5b5051919050565b600060208284031215612c3457600080fd5b61055582612abf565b7f4e487b7100000000000000000000000000000000000000000000000000000000600052601160045260246000fd5b60008219821115612c7f57612c7f612c3d565b500190565b60006020808385031215612c9757600080fd5b825167ffffffffffffffff80821115612caf57600080fd5b818501915085601f830112612cc357600080fd5b815181811115612cd557612cd5612999565b8060051b9150612ce68483016129f2565b8181529183018401918481019088841115612d0057600080fd5b938501935b83851015612d2a5784519250612d1a836127cd565b8282529385019390850190612d05565b98975050505050505050565b7f4e487b7100000000000000000000000000000000000000000000000000000000600052603260045260246000fd5b600060208284031215612d7757600080fd5b815167ffffffffffffffff80821115612d8f57600080fd5b818401915084601f830112612da357600080fd5b815181811115612db557612db5612999565b612de660207fffffffffffffffffffffffffffffffffffffffffffffffffffffffffffffffe0601f840116016129f2565b9150808252856020828501011115612dfd57600080fd5b612e0e816020840160208601612848565b50949350505050565b60007fffffffffffffffffffffffffffffffffffffffffffffffffffffffffffffffff821415612e4957612e49612c3d565b5060010190565b602081526000610555602083018461287856fea26469706673582212206940e80c888a1b85d8320aded7e6974829742f6a21e92fbcb12ff358a9627b0a64736f6c634300080a0033",
  "devdoc": {
    "author": "Aave",
    "kind": "dev",
    "methods": {
      "getATokenTotalSupply(address)": {
        "params": {
          "asset": "The address of the underlying asset of the reserve"
        },
        "returns": {
          "_0": "The total supply of the aToken*"
        }
      },
      "getAllATokens()": {
        "returns": {
          "_0": "The list of ATokens, pairs of symbols and addresses"
        }
      },
      "getAllReservesTokens()": {
        "details": "Handling MKR and ETH in a different way since they do not have standard `symbol` functions.",
        "returns": {
          "_0": "The list of reserves, pairs of symbols and addresses"
        }
      },
      "getDebtCeiling(address)": {
        "params": {
          "asset": "The address of the underlying asset of the reserve"
        },
        "returns": {
          "_0": "The debt ceiling of the reserve*"
        }
      },
      "getDebtCeilingDecimals()": {
        "returns": {
          "_0": "The debt ceiling decimals*"
        }
      },
      "getInterestRateStrategyAddress(address)": {
        "params": {
          "asset": "The address of the underlying asset of the reserve"
        },
        "returns": {
          "irStrategyAddress": "The address of the Interest Rate strategy"
        }
      },
      "getLiquidationProtocolFee(address)": {
        "params": {
          "asset": "The address of the underlying asset of the reserve"
        },
        "returns": {
          "_0": "The protocol fee on liquidation*"
        }
      },
      "getPaused(address)": {
        "params": {
          "asset": "The address of the underlying asset of the reserve"
        },
        "returns": {
          "isPaused": "True if the pool is paused, false otherwise*"
        }
      },
      "getReserveCaps(address)": {
        "params": {
          "asset": "The address of the underlying asset of the reserve"
        },
        "returns": {
          "borrowCap": "The borrow cap of the reserve",
          "supplyCap": "The supply cap of the reserve*"
        }
      },
      "getReserveConfigurationData(address)": {
        "details": "Not returning borrow and supply caps for compatibility, nor pause flag",
        "params": {
          "asset": "The address of the underlying asset of the reserve"
        },
        "returns": {
          "borrowingEnabled": "True if borrowing is enabled, false otherwise",
          "decimals": "The number of decimals of the reserve",
          "isActive": "True if it is active, false otherwise",
          "isFrozen": "True if it is frozen, false otherwise*",
          "liquidationBonus": "The liquidationBonus of the reserve",
          "liquidationThreshold": "The liquidationThreshold of the reserve",
          "ltv": "The ltv of the reserve",
          "reserveFactor": "The reserveFactor of the reserve",
          "stableBorrowRateEnabled": "True if stable rate borrowing is enabled, false otherwise",
          "usageAsCollateralEnabled": "True if the usage as collateral is enabled, false otherwise"
        }
      },
      "getReserveData(address)": {
        "params": {
          "asset": "The address of the underlying asset of the reserve"
        },
        "returns": {
          "accruedToTreasuryScaled": "The scaled amount of tokens accrued to treasury that is to be minted",
          "averageStableBorrowRate": "The average stable borrow rate of the reserve",
          "lastUpdateTimestamp": "The timestamp of the last update of the reserve*",
          "liquidityIndex": "The liquidity index of the reserve",
          "liquidityRate": "The liquidity rate of the reserve",
          "stableBorrowRate": "The stable borrow rate of the reserve",
          "totalAToken": "The total supply of the aToken",
          "totalStableDebt": "The total stable debt of the reserve",
          "totalVariableDebt": "The total variable debt of the reserve",
          "unbacked": "The amount of unbacked tokens",
          "variableBorrowIndex": "The variable borrow index of the reserve",
          "variableBorrowRate": "The variable borrow rate of the reserve"
        }
      },
      "getReserveEModeCategory(address)": {
        "params": {
          "asset": "The address of the underlying asset of the reserve"
        },
        "returns": {
          "_0": "The eMode id of the reserve"
        }
      },
      "getReserveTokensAddresses(address)": {
        "params": {
          "asset": "The address of the underlying asset of the reserve"
        },
        "returns": {
          "aTokenAddress": "The AToken address of the reserve",
          "stableDebtTokenAddress": "The StableDebtToken address of the reserve",
          "variableDebtTokenAddress": "The VariableDebtToken address of the reserve"
        }
      },
      "getSiloedBorrowing(address)": {
        "params": {
          "asset": "The address of the underlying asset of the reserve"
        },
        "returns": {
          "_0": "True if the asset is siloed for borrowing*"
        }
      },
      "getTotalDebt(address)": {
        "params": {
          "asset": "The address of the underlying asset of the reserve"
        },
        "returns": {
          "_0": "The total debt for asset*"
        }
      },
      "getUnbackedMintCap(address)": {
        "params": {
          "asset": "The address of the underlying asset of the reserve"
        },
        "returns": {
          "_0": "The unbacked mint cap of the reserve*"
        }
      },
      "getUserReserveData(address,address)": {
        "params": {
          "asset": "The address of the underlying asset of the reserve",
          "user": "The address of the user"
        },
        "returns": {
          "currentATokenBalance": "The current AToken balance of the user",
          "currentStableDebt": "The current stable debt of the user",
          "currentVariableDebt": "The current variable debt of the user",
          "liquidityRate": "The liquidity rate of the reserve",
          "principalStableDebt": "The principal stable debt of the user",
          "scaledVariableDebt": "The scaled variable debt of the user",
          "stableBorrowRate": "The stable borrow rate of the user",
          "stableRateLastUpdated": "The timestamp of the last update of the user stable rate",
          "usageAsCollateralEnabled": "True if the user is using the asset as collateral, false         otherwise*"
        }
      }
    },
    "title": "AaveProtocolDataProvider",
    "version": 1
  },
  "userdoc": {
    "kind": "user",
    "methods": {
      "getATokenTotalSupply(address)": {
        "notice": "Returns the total supply of aTokens for a given asset"
      },
      "getAllATokens()": {
        "notice": "Returns the list of the existing ATokens in the pool."
      },
      "getAllReservesTokens()": {
        "notice": "Returns the list of the existing reserves in the pool."
      },
      "getDebtCeiling(address)": {
        "notice": "Returns the debt ceiling of the reserve"
      },
      "getDebtCeilingDecimals()": {
        "notice": "Returns the debt ceiling decimals"
      },
      "getInterestRateStrategyAddress(address)": {
        "notice": "Returns the address of the Interest Rate strategy"
      },
      "getLiquidationProtocolFee(address)": {
        "notice": "Returns the protocol fee on the liquidation bonus"
      },
      "getPaused(address)": {
        "notice": "Returns if the pool is paused"
      },
      "getReserveCaps(address)": {
        "notice": "Returns the caps parameters of the reserve"
      },
      "getReserveConfigurationData(address)": {
        "notice": "Returns the configuration data of the reserve"
      },
      "getReserveData(address)": {
        "notice": "Returns the reserve data"
      },
      "getReserveEModeCategory(address)": {
        "notice": "Returns the efficiency mode category of the reserve"
      },
      "getReserveTokensAddresses(address)": {
        "notice": "Returns the token addresses of the reserve"
      },
      "getSiloedBorrowing(address)": {
        "notice": "Returns the siloed borrowing flag"
      },
      "getTotalDebt(address)": {
        "notice": "Returns the total debt for a given asset"
      },
      "getUnbackedMintCap(address)": {
        "notice": "Returns the unbacked mint cap of the reserve"
      },
      "getUserReserveData(address,address)": {
        "notice": "Returns the user data in a reserve"
      }
    },
    "notice": "Peripheral contract to collect and pre-process information from the Pool.",
    "version": 1
  },
  "storageLayout": {
    "storage": [],
    "types": null
  }
}